{
  "_format": "hh-sol-artifact-1",
  "contractName": "ZetaForgeUniversalV2",
  "sourceName": "contracts/ZetaForgeUniversalV2.sol",
  "abi": [
    {
      "inputs": [
        {
          "internalType": "address",
          "name": "_legacyContract",
          "type": "address"
        },
        {
          "internalType": "string",
          "name": "_name",
          "type": "string"
        },
        {
          "internalType": "string",
          "name": "_symbol",
          "type": "string"
        }
      ],
      "stateMutability": "nonpayable",
      "type": "constructor"
    },
    {
      "inputs": [],
      "name": "ERC721EnumerableForbiddenBatchMint",
      "type": "error"
    },
    {
      "inputs": [
        {
          "internalType": "address",
          "name": "sender",
          "type": "address"
        },
        {
          "internalType": "uint256",
          "name": "tokenId",
          "type": "uint256"
        },
        {
          "internalType": "address",
          "name": "owner",
          "type": "address"
        }
      ],
      "name": "ERC721IncorrectOwner",
      "type": "error"
    },
    {
      "inputs": [
        {
          "internalType": "address",
          "name": "operator",
          "type": "address"
        },
        {
          "internalType": "uint256",
          "name": "tokenId",
          "type": "uint256"
        }
      ],
      "name": "ERC721InsufficientApproval",
      "type": "error"
    },
    {
      "inputs": [
        {
          "internalType": "address",
          "name": "approver",
          "type": "address"
        }
      ],
      "name": "ERC721InvalidApprover",
      "type": "error"
    },
    {
      "inputs": [
        {
          "internalType": "address",
          "name": "operator",
          "type": "address"
        }
      ],
      "name": "ERC721InvalidOperator",
      "type": "error"
    },
    {
      "inputs": [
        {
          "internalType": "address",
          "name": "owner",
          "type": "address"
        }
      ],
      "name": "ERC721InvalidOwner",
      "type": "error"
    },
    {
      "inputs": [
        {
          "internalType": "address",
          "name": "receiver",
          "type": "address"
        }
      ],
      "name": "ERC721InvalidReceiver",
      "type": "error"
    },
    {
      "inputs": [
        {
          "internalType": "address",
          "name": "sender",
          "type": "address"
        }
      ],
      "name": "ERC721InvalidSender",
      "type": "error"
    },
    {
      "inputs": [
        {
          "internalType": "uint256",
          "name": "tokenId",
          "type": "uint256"
        }
      ],
      "name": "ERC721NonexistentToken",
      "type": "error"
    },
    {
      "inputs": [
        {
          "internalType": "address",
          "name": "owner",
          "type": "address"
        },
        {
          "internalType": "uint256",
          "name": "index",
          "type": "uint256"
        }
      ],
      "name": "ERC721OutOfBoundsIndex",
      "type": "error"
    },
    {
      "inputs": [
        {
          "internalType": "address",
          "name": "owner",
          "type": "address"
        }
      ],
      "name": "OwnableInvalidOwner",
      "type": "error"
    },
    {
      "inputs": [
        {
          "internalType": "address",
          "name": "account",
          "type": "address"
        }
      ],
      "name": "OwnableUnauthorizedAccount",
      "type": "error"
    },
    {
      "inputs": [],
      "name": "ReentrancyGuardReentrantCall",
      "type": "error"
    },
    {
      "anonymous": false,
      "inputs": [
        {
          "indexed": true,
          "internalType": "address",
          "name": "owner",
          "type": "address"
        },
        {
          "indexed": true,
          "internalType": "address",
          "name": "approved",
          "type": "address"
        },
        {
          "indexed": true,
          "internalType": "uint256",
          "name": "tokenId",
          "type": "uint256"
        }
      ],
      "name": "Approval",
      "type": "event"
    },
    {
      "anonymous": false,
      "inputs": [
        {
          "indexed": true,
          "internalType": "address",
          "name": "owner",
          "type": "address"
        },
        {
          "indexed": true,
          "internalType": "address",
          "name": "operator",
          "type": "address"
        },
        {
          "indexed": false,
          "internalType": "bool",
          "name": "approved",
          "type": "bool"
        }
      ],
      "name": "ApprovalForAll",
      "type": "event"
    },
    {
      "anonymous": false,
      "inputs": [
        {
          "indexed": true,
          "internalType": "uint256",
          "name": "tokenId",
          "type": "uint256"
        },
        {
          "indexed": true,
          "internalType": "address",
          "name": "minter",
          "type": "address"
        },
        {
          "indexed": true,
          "internalType": "uint256",
          "name": "sourceChain",
          "type": "uint256"
        },
        {
          "indexed": false,
          "internalType": "string",
          "name": "assetId",
          "type": "string"
        },
        {
          "indexed": false,
          "internalType": "string",
          "name": "prompt",
          "type": "string"
        },
        {
          "indexed": false,
          "internalType": "string",
          "name": "metadataURI",
          "type": "string"
        }
      ],
      "name": "AssetMinted",
      "type": "event"
    },
    {
      "anonymous": false,
      "inputs": [
        {
          "indexed": false,
          "internalType": "uint256",
          "name": "_fromTokenId",
          "type": "uint256"
        },
        {
          "indexed": false,
          "internalType": "uint256",
          "name": "_toTokenId",
          "type": "uint256"
        }
      ],
      "name": "BatchMetadataUpdate",
      "type": "event"
    },
    {
      "anonymous": false,
      "inputs": [
        {
          "indexed": true,
          "internalType": "uint256",
          "name": "chainId",
          "type": "uint256"
        },
        {
          "indexed": false,
          "internalType": "uint256",
          "name": "newFee",
          "type": "uint256"
        }
      ],
      "name": "ChainFeeUpdated",
      "type": "event"
    },
    {
      "anonymous": false,
      "inputs": [
        {
          "indexed": true,
          "internalType": "address",
          "name": "user",
          "type": "address"
        },
        {
          "indexed": true,
          "internalType": "uint256",
          "name": "sourceChain",
          "type": "uint256"
        },
        {
          "indexed": false,
          "internalType": "string",
          "name": "assetId",
          "type": "string"
        },
        {
          "indexed": false,
          "internalType": "string",
          "name": "prompt",
          "type": "string"
        }
      ],
      "name": "CrossChainMintRequested",
      "type": "event"
    },
    {
      "anonymous": false,
      "inputs": [
        {
          "indexed": true,
          "internalType": "uint256",
          "name": "legacyTokenId",
          "type": "uint256"
        },
        {
          "indexed": true,
          "internalType": "uint256",
          "name": "newTokenId",
          "type": "uint256"
        },
        {
          "indexed": true,
          "internalType": "address",
          "name": "owner",
          "type": "address"
        }
      ],
      "name": "LegacyAssetMigrated",
      "type": "event"
    },
    {
      "anonymous": false,
      "inputs": [
        {
          "indexed": false,
          "internalType": "uint256",
          "name": "_tokenId",
          "type": "uint256"
        }
      ],
      "name": "MetadataUpdate",
      "type": "event"
    },
    {
      "anonymous": false,
      "inputs": [
        {
          "indexed": false,
          "internalType": "uint256",
          "name": "newPrice",
          "type": "uint256"
        }
      ],
      "name": "MintPriceUpdated",
      "type": "event"
    },
    {
      "anonymous": false,
      "inputs": [
        {
          "indexed": true,
          "internalType": "address",
          "name": "previousOwner",
          "type": "address"
        },
        {
          "indexed": true,
          "internalType": "address",
          "name": "newOwner",
          "type": "address"
        }
      ],
      "name": "OwnershipTransferred",
      "type": "event"
    },
    {
      "anonymous": false,
      "inputs": [
        {
          "indexed": true,
          "internalType": "address",
          "name": "from",
          "type": "address"
        },
        {
          "indexed": true,
          "internalType": "address",
          "name": "to",
          "type": "address"
        },
        {
          "indexed": true,
          "internalType": "uint256",
          "name": "tokenId",
          "type": "uint256"
        }
      ],
      "name": "Transfer",
      "type": "event"
    },
    {
      "inputs": [],
      "name": "MAX_SUPPLY",
      "outputs": [
        {
          "internalType": "uint256",
          "name": "",
          "type": "uint256"
        }
      ],
      "stateMutability": "view",
      "type": "function"
    },
    {
      "inputs": [
        {
          "internalType": "address",
          "name": "to",
          "type": "address"
        },
        {
          "internalType": "uint256",
          "name": "tokenId",
          "type": "uint256"
        }
      ],
      "name": "approve",
      "outputs": [],
      "stateMutability": "nonpayable",
      "type": "function"
    },
    {
      "inputs": [
        {
          "internalType": "string",
          "name": "",
          "type": "string"
        }
      ],
      "name": "assetIdToTokenId",
      "outputs": [
        {
          "internalType": "uint256",
          "name": "",
          "type": "uint256"
        }
      ],
      "stateMutability": "view",
      "type": "function"
    },
    {
      "inputs": [
        {
          "internalType": "address",
          "name": "owner",
          "type": "address"
        }
      ],
      "name": "balanceOf",
      "outputs": [
        {
          "internalType": "uint256",
          "name": "",
          "type": "uint256"
        }
      ],
      "stateMutability": "view",
      "type": "function"
    },
    {
      "inputs": [
        {
          "internalType": "address[]",
          "name": "recipients",
          "type": "address[]"
        },
        {
          "internalType": "string[]",
          "name": "assetIds",
          "type": "string[]"
        },
        {
          "internalType": "string[]",
          "name": "prompts",
          "type": "string[]"
        },
        {
          "internalType": "string[]",
          "name": "metadataURIs",
          "type": "string[]"
        },
        {
          "internalType": "string[]",
          "name": "traits",
          "type": "string[]"
        }
      ],
      "name": "batchMintAssets",
      "outputs": [],
      "stateMutability": "payable",
      "type": "function"
    },
    {
      "inputs": [
        {
          "internalType": "uint256",
          "name": "",
          "type": "uint256"
        }
      ],
      "name": "chainFees",
      "outputs": [
        {
          "internalType": "uint256",
          "name": "",
          "type": "uint256"
        }
      ],
      "stateMutability": "view",
      "type": "function"
    },
    {
      "inputs": [
        {
          "internalType": "uint256",
          "name": "",
          "type": "uint256"
        }
      ],
      "name": "chainMinters",
      "outputs": [
        {
          "internalType": "address",
          "name": "",
          "type": "address"
        }
      ],
      "stateMutability": "view",
      "type": "function"
    },
    {
      "inputs": [
        {
          "internalType": "uint256",
          "name": "",
          "type": "uint256"
        }
      ],
      "name": "creationTimestamp",
      "outputs": [
        {
          "internalType": "uint256",
          "name": "",
          "type": "uint256"
        }
      ],
      "stateMutability": "view",
      "type": "function"
    },
    {
      "inputs": [
        {
          "internalType": "address",
          "name": "to",
          "type": "address"
        },
        {
          "internalType": "uint256",
          "name": "sourceChain",
          "type": "uint256"
        },
        {
          "internalType": "string",
          "name": "assetId",
          "type": "string"
        },
        {
          "internalType": "string",
          "name": "prompt",
          "type": "string"
        },
        {
          "internalType": "string",
          "name": "metadataURI",
          "type": "string"
        },
        {
          "internalType": "string",
          "name": "traits",
          "type": "string"
        }
      ],
      "name": "crossChainMint",
      "outputs": [],
      "stateMutability": "payable",
      "type": "function"
    },
    {
      "inputs": [
        {
          "internalType": "uint256",
          "name": "tokenId",
          "type": "uint256"
        }
      ],
      "name": "getApproved",
      "outputs": [
        {
          "internalType": "address",
          "name": "",
          "type": "address"
        }
      ],
      "stateMutability": "view",
      "type": "function"
    },
    {
      "inputs": [
        {
          "internalType": "uint256",
          "name": "tokenId",
          "type": "uint256"
        }
      ],
      "name": "getAssetMetadata",
      "outputs": [
        {
          "components": [
            {
              "internalType": "string",
              "name": "assetId",
              "type": "string"
            },
            {
              "internalType": "string",
              "name": "name",
              "type": "string"
            },
            {
              "internalType": "string",
              "name": "description",
              "type": "string"
            },
            {
              "internalType": "string",
              "name": "imageUrl",
              "type": "string"
            },
            {
              "internalType": "string[]",
              "name": "traitTypes",
              "type": "string[]"
            },
            {
              "internalType": "string[]",
              "name": "traitValues",
              "type": "string[]"
            },
            {
              "internalType": "uint256",
              "name": "timestamp",
              "type": "uint256"
            },
            {
              "internalType": "uint256",
              "name": "sourceChain",
              "type": "uint256"
            },
            {
              "internalType": "address",
              "name": "originalMinter",
              "type": "address"
            }
          ],
          "internalType": "struct ZetaForgeUniversalV2.AssetMetadata",
          "name": "",
          "type": "tuple"
        }
      ],
      "stateMutability": "view",
      "type": "function"
    },
    {
      "inputs": [
        {
          "internalType": "uint256",
          "name": "chainId",
          "type": "uint256"
        }
      ],
      "name": "getChainFee",
      "outputs": [
        {
          "internalType": "uint256",
          "name": "",
          "type": "uint256"
        }
      ],
      "stateMutability": "view",
      "type": "function"
    },
    {
      "inputs": [
        {
          "internalType": "string",
          "name": "assetId",
          "type": "string"
        }
      ],
      "name": "getTokenIdByAssetId",
      "outputs": [
        {
          "internalType": "uint256",
          "name": "",
          "type": "uint256"
        }
      ],
      "stateMutability": "view",
      "type": "function"
    },
    {
      "inputs": [
        {
          "internalType": "address",
          "name": "user",
          "type": "address"
        }
      ],
      "name": "getUserAssets",
      "outputs": [
        {
          "internalType": "uint256[]",
          "name": "tokenIds",
          "type": "uint256[]"
        },
        {
          "internalType": "string[]",
          "name": "assetIds",
          "type": "string[]"
        },
        {
          "internalType": "string[]",
          "name": "prompts",
          "type": "string[]"
        },
        {
          "internalType": "string[]",
          "name": "uris",
          "type": "string[]"
        },
        {
          "internalType": "uint256[]",
          "name": "timestamps",
          "type": "uint256[]"
        },
        {
          "internalType": "uint256[]",
          "name": "sourceChains",
          "type": "uint256[]"
        }
      ],
      "stateMutability": "view",
      "type": "function"
    },
    {
      "inputs": [
        {
          "internalType": "address",
          "name": "owner",
          "type": "address"
        },
        {
          "internalType": "address",
          "name": "operator",
          "type": "address"
        }
      ],
      "name": "isApprovedForAll",
      "outputs": [
        {
          "internalType": "bool",
          "name": "",
          "type": "bool"
        }
      ],
      "stateMutability": "view",
      "type": "function"
    },
    {
      "inputs": [
        {
          "internalType": "string",
          "name": "assetId",
          "type": "string"
        }
      ],
      "name": "isAssetMinted",
      "outputs": [
        {
          "internalType": "bool",
          "name": "",
          "type": "bool"
        }
      ],
      "stateMutability": "view",
      "type": "function"
    },
    {
      "inputs": [],
      "name": "legacyContract",
      "outputs": [
        {
          "internalType": "contract IZetaGenNFT",
          "name": "",
          "type": "address"
        }
      ],
      "stateMutability": "view",
      "type": "function"
    },
    {
      "inputs": [],
      "name": "legacyMigrationEnabled",
      "outputs": [
        {
          "internalType": "bool",
          "name": "",
          "type": "bool"
        }
      ],
      "stateMutability": "view",
      "type": "function"
    },
    {
      "inputs": [
        {
          "internalType": "uint256",
          "name": "legacyTokenId",
          "type": "uint256"
        }
      ],
      "name": "migrateLegacyAsset",
      "outputs": [],
      "stateMutability": "nonpayable",
      "type": "function"
    },
    {
      "inputs": [
        {
          "internalType": "address",
          "name": "to",
          "type": "address"
        },
        {
          "internalType": "string",
          "name": "assetId",
          "type": "string"
        },
        {
          "internalType": "string",
          "name": "metadataURI",
          "type": "string"
        },
        {
          "components": [
            {
              "internalType": "string",
              "name": "assetId",
              "type": "string"
            },
            {
              "internalType": "string",
              "name": "name",
              "type": "string"
            },
            {
              "internalType": "string",
              "name": "description",
              "type": "string"
            },
            {
              "internalType": "string",
              "name": "imageUrl",
              "type": "string"
            },
            {
              "internalType": "string[]",
              "name": "traitTypes",
              "type": "string[]"
            },
            {
              "internalType": "string[]",
              "name": "traitValues",
              "type": "string[]"
            },
            {
              "internalType": "uint256",
              "name": "timestamp",
              "type": "uint256"
            },
            {
              "internalType": "uint256",
              "name": "sourceChain",
              "type": "uint256"
            },
            {
              "internalType": "address",
              "name": "originalMinter",
              "type": "address"
            }
          ],
          "internalType": "struct ZetaForgeUniversalV2.AssetMetadata",
          "name": "metadata",
          "type": "tuple"
        }
      ],
      "name": "mintAsset",
      "outputs": [],
      "stateMutability": "payable",
      "type": "function"
    },
    {
      "inputs": [
        {
          "internalType": "uint256",
          "name": "",
          "type": "uint256"
        }
      ],
      "name": "mintChains",
      "outputs": [
        {
          "internalType": "uint256",
          "name": "",
          "type": "uint256"
        }
      ],
      "stateMutability": "view",
      "type": "function"
    },
    {
      "inputs": [],
      "name": "mintPrice",
      "outputs": [
        {
          "internalType": "uint256",
          "name": "",
          "type": "uint256"
        }
      ],
      "stateMutability": "view",
      "type": "function"
    },
    {
      "inputs": [
        {
          "internalType": "string",
          "name": "",
          "type": "string"
        }
      ],
      "name": "mintedAssets",
      "outputs": [
        {
          "internalType": "bool",
          "name": "",
          "type": "bool"
        }
      ],
      "stateMutability": "view",
      "type": "function"
    },
    {
      "inputs": [],
      "name": "name",
      "outputs": [
        {
          "internalType": "string",
          "name": "",
          "type": "string"
        }
      ],
      "stateMutability": "view",
      "type": "function"
    },
    {
      "inputs": [],
      "name": "owner",
      "outputs": [
        {
          "internalType": "address",
          "name": "",
          "type": "address"
        }
      ],
      "stateMutability": "view",
      "type": "function"
    },
    {
      "inputs": [
        {
          "internalType": "uint256",
          "name": "tokenId",
          "type": "uint256"
        }
      ],
      "name": "ownerOf",
      "outputs": [
        {
          "internalType": "address",
          "name": "",
          "type": "address"
        }
      ],
      "stateMutability": "view",
      "type": "function"
    },
    {
      "inputs": [],
      "name": "renounceOwnership",
      "outputs": [],
      "stateMutability": "nonpayable",
      "type": "function"
    },
    {
      "inputs": [
        {
          "internalType": "address",
          "name": "from",
          "type": "address"
        },
        {
          "internalType": "address",
          "name": "to",
          "type": "address"
        },
        {
          "internalType": "uint256",
          "name": "tokenId",
          "type": "uint256"
        }
      ],
      "name": "safeTransferFrom",
      "outputs": [],
      "stateMutability": "nonpayable",
      "type": "function"
    },
    {
      "inputs": [
        {
          "internalType": "address",
          "name": "from",
          "type": "address"
        },
        {
          "internalType": "address",
          "name": "to",
          "type": "address"
        },
        {
          "internalType": "uint256",
          "name": "tokenId",
          "type": "uint256"
        },
        {
          "internalType": "bytes",
          "name": "data",
          "type": "bytes"
        }
      ],
      "name": "safeTransferFrom",
      "outputs": [],
      "stateMutability": "nonpayable",
      "type": "function"
    },
    {
      "inputs": [
        {
          "internalType": "address",
          "name": "operator",
          "type": "address"
        },
        {
          "internalType": "bool",
          "name": "approved",
          "type": "bool"
        }
      ],
      "name": "setApprovalForAll",
      "outputs": [],
      "stateMutability": "nonpayable",
      "type": "function"
    },
    {
      "inputs": [
        {
          "internalType": "uint256",
          "name": "chainId",
          "type": "uint256"
        },
        {
          "internalType": "uint256",
          "name": "fee",
          "type": "uint256"
        }
      ],
      "name": "setChainFee",
      "outputs": [],
      "stateMutability": "nonpayable",
      "type": "function"
    },
    {
      "inputs": [
        {
          "internalType": "bool",
          "name": "enabled",
          "type": "bool"
        }
      ],
      "name": "setLegacyMigration",
      "outputs": [],
      "stateMutability": "nonpayable",
      "type": "function"
    },
    {
      "inputs": [
        {
          "internalType": "uint256",
          "name": "_newPrice",
          "type": "uint256"
        }
      ],
      "name": "setMintPrice",
      "outputs": [],
      "stateMutability": "nonpayable",
      "type": "function"
    },
    {
      "inputs": [
        {
          "internalType": "bool",
          "name": "enabled",
          "type": "bool"
        }
      ],
      "name": "setUniversalMode",
      "outputs": [],
      "stateMutability": "nonpayable",
      "type": "function"
    },
    {
      "inputs": [
        {
          "internalType": "bytes4",
          "name": "interfaceId",
          "type": "bytes4"
        }
      ],
      "name": "supportsInterface",
      "outputs": [
        {
          "internalType": "bool",
          "name": "",
          "type": "bool"
        }
      ],
      "stateMutability": "view",
      "type": "function"
    },
    {
      "inputs": [],
      "name": "symbol",
      "outputs": [
        {
          "internalType": "string",
          "name": "",
          "type": "string"
        }
      ],
      "stateMutability": "view",
      "type": "function"
    },
    {
      "inputs": [
        {
          "internalType": "uint256",
          "name": "index",
          "type": "uint256"
        }
      ],
      "name": "tokenByIndex",
      "outputs": [
        {
          "internalType": "uint256",
          "name": "",
          "type": "uint256"
        }
      ],
      "stateMutability": "view",
      "type": "function"
    },
    {
      "inputs": [
        {
          "internalType": "uint256",
          "name": "",
          "type": "uint256"
        }
      ],
      "name": "tokenMetadata",
      "outputs": [
        {
          "internalType": "string",
          "name": "assetId",
          "type": "string"
        },
        {
          "internalType": "string",
          "name": "name",
          "type": "string"
        },
        {
          "internalType": "string",
          "name": "description",
          "type": "string"
        },
        {
          "internalType": "string",
          "name": "imageUrl",
          "type": "string"
        },
        {
          "internalType": "uint256",
          "name": "timestamp",
          "type": "uint256"
        },
        {
          "internalType": "uint256",
          "name": "sourceChain",
          "type": "uint256"
        },
        {
          "internalType": "address",
          "name": "originalMinter",
          "type": "address"
        }
      ],
      "stateMutability": "view",
      "type": "function"
    },
    {
      "inputs": [
        {
          "internalType": "address",
          "name": "owner",
          "type": "address"
        },
        {
          "internalType": "uint256",
          "name": "index",
          "type": "uint256"
        }
      ],
      "name": "tokenOfOwnerByIndex",
      "outputs": [
        {
          "internalType": "uint256",
          "name": "",
          "type": "uint256"
        }
      ],
      "stateMutability": "view",
      "type": "function"
    },
    {
      "inputs": [
        {
          "internalType": "uint256",
          "name": "",
          "type": "uint256"
        }
      ],
      "name": "tokenPrompts",
      "outputs": [
        {
          "internalType": "string",
          "name": "",
          "type": "string"
        }
      ],
      "stateMutability": "view",
      "type": "function"
    },
    {
      "inputs": [
        {
          "internalType": "uint256",
          "name": "",
          "type": "uint256"
        }
      ],
      "name": "tokenTraits",
      "outputs": [
        {
          "internalType": "string",
          "name": "",
          "type": "string"
        }
      ],
      "stateMutability": "view",
      "type": "function"
    },
    {
      "inputs": [
        {
          "internalType": "uint256",
          "name": "tokenId",
          "type": "uint256"
        }
      ],
      "name": "tokenURI",
      "outputs": [
        {
          "internalType": "string",
          "name": "",
          "type": "string"
        }
      ],
      "stateMutability": "view",
      "type": "function"
    },
    {
      "inputs": [],
      "name": "totalCombinedSupply",
      "outputs": [
        {
          "internalType": "uint256",
          "name": "",
          "type": "uint256"
        }
      ],
      "stateMutability": "view",
      "type": "function"
    },
    {
      "inputs": [],
      "name": "totalSupply",
      "outputs": [
        {
          "internalType": "uint256",
          "name": "",
          "type": "uint256"
        }
      ],
      "stateMutability": "view",
      "type": "function"
    },
    {
      "inputs": [
        {
          "internalType": "address",
          "name": "from",
          "type": "address"
        },
        {
          "internalType": "address",
          "name": "to",
          "type": "address"
        },
        {
          "internalType": "uint256",
          "name": "tokenId",
          "type": "uint256"
        }
      ],
      "name": "transferFrom",
      "outputs": [],
      "stateMutability": "nonpayable",
      "type": "function"
    },
    {
      "inputs": [
        {
          "internalType": "address",
          "name": "newOwner",
          "type": "address"
        }
      ],
      "name": "transferOwnership",
      "outputs": [],
      "stateMutability": "nonpayable",
      "type": "function"
    },
    {
      "inputs": [],
      "name": "universalModeEnabled",
      "outputs": [
        {
          "internalType": "bool",
          "name": "",
          "type": "bool"
        }
      ],
      "stateMutability": "view",
      "type": "function"
    },
    {
      "inputs": [
        {
          "internalType": "address",
          "name": "",
          "type": "address"
        },
        {
          "internalType": "uint256",
          "name": "",
          "type": "uint256"
        }
      ],
      "name": "userAssets",
      "outputs": [
        {
          "internalType": "uint256",
          "name": "",
          "type": "uint256"
        }
      ],
      "stateMutability": "view",
      "type": "function"
    },
    {
      "inputs": [],
      "name": "withdraw",
      "outputs": [],
      "stateMutability": "nonpayable",
      "type": "function"
    }
  ],
  "bytecode": "0x6080604052662386f26fc10000600f556019805461ffff19166101011790553480156200002b57600080fd5b5060405162004e8638038062004e868339810160408190526200004e91620002f1565b33828260006200005f83826200040a565b5060016200006e82826200040a565b5050506001600160a01b038116620000a057604051631e4fbdf760e01b81526000600482015260240160405180910390fd5b620000ab81620001da565b50506001600c5550600d80546001600160a01b0319166001600160a01b0392909216919091179055612711600e5560186020526611c37937e080007ff3794665d3af9b6fb6f858b70185898134f96768ef31c325d52e04f0ac195a4d5566071afd498d00007f79c20c23444722979703ddc9bbf9627d31852172057d56a31d9ee66d405591498190557f68614b1185a5fda1128b4abc76b64fc221626c52bccdff00c0ecd759580c54d755660aa87bee5380007f6113d4c8fa03c398e2d36ab934c4bf185f65a4c4d703f9f59a46a82f7125b9df5566038d7ea4c680007ffff23513744d0a63534cb11143fcdc84b9c70373c1c6e5d617161e3dc458d24e819055611b586000527f5a5069f64f5e72eb9a17f1a1742e84702ed7a9c592596b39a73ab804203ec21755620004d6565b600b80546001600160a01b038381166001600160a01b0319831681179093556040519116919082907f8be0079c531659141344cd1fd0a4f28419497f9722a3daafe3b4186f6b6457e090600090a35050565b634e487b7160e01b600052604160045260246000fd5b600082601f8301126200025457600080fd5b81516001600160401b03808211156200027157620002716200022c565b604051601f8301601f19908116603f011681019082821181831017156200029c576200029c6200022c565b81604052838152602092508683858801011115620002b957600080fd5b600091505b83821015620002dd5785820183015181830184015290820190620002be565b600093810190920192909252949350505050565b6000806000606084860312156200030757600080fd5b83516001600160a01b03811681146200031f57600080fd5b60208501519093506001600160401b03808211156200033d57600080fd5b6200034b8783880162000242565b935060408601519150808211156200036257600080fd5b50620003718682870162000242565b9150509250925092565b600181811c908216806200039057607f821691505b602082108103620003b157634e487b7160e01b600052602260045260246000fd5b50919050565b601f8211156200040557600081815260208120601f850160051c81016020861015620003e05750805b601f850160051c820191505b818110156200040157828155600101620003ec565b5050505b505050565b81516001600160401b038111156200042657620004266200022c565b6200043e816200043784546200037b565b84620003b7565b602080601f8311600181146200047657600084156200045d5750858301515b600019600386901b1c1916600185901b17855562000401565b600085815260208120601f198616915b82811015620004a75788860151825594840194600190910190840162000486565b5085821015620004c65787850151600019600388901b60f8161c191681555b5050505050600190811b01905550565b6149a080620004e66000396000f3fe6080604052600436106102ae5760003560e01c80636352211e11610175578063a22cb465116100dc578063cf2acf8411610095578063e05c57bf1161006f578063e05c57bf146108c2578063e985e9c5146108e2578063f2fde38b14610902578063f4a0a5281461092257600080fd5b8063cf2acf841461083d578063d04ec72a1461086a578063dd885b29146108a257600080fd5b8063a22cb46514610772578063b5c9e3d614610792578063b88d4fde146107b2578063c87b56dd146107d2578063c9931c88146107f2578063cdfee6b91461082857600080fd5b8063765ff0611161012e578063765ff061146106ad578063778fd34c146106df57806382ffc5b9146106f25780638da5cb5b1461071257806395d89b41146107305780639fc5f21b1461074557600080fd5b80636352211e146105ef5780636817c76c1461060f5780636914db60146106255780636a8a69aa1461065857806370a0823114610678578063715018a61461069857600080fd5b80632f745c591161021957806346ae7e4a116101d257806346ae7e4a1461052f5780634b64bbfb1461054f5780634d1154ac1461057c5780634f6ccce71461059c57806357349a96146105bc5780635b1b0c5d146105dc57600080fd5b80632f745c5914610485578063302657d1146104a557806332cb6b0c146104c45780633ccfd60b146104da57806342842e0e146104ef578063452c57011461050f57600080fd5b806318160ddd1161026b57806318160ddd146103bf5780631c9cb5f9146103de578063202f4a53146103f157806323b872dd1461041e57806323cb1e0c1461043e5780632cbb87df1461046b57600080fd5b806301ffc9a7146102b357806306fdde03146102e8578063079e862c1461030a578063081812fc1461032c578063095ea7b31461036457806311d2c3d314610384575b600080fd5b3480156102bf57600080fd5b506102d36102ce366004613926565b610942565b60405190151581526020015b60405180910390f35b3480156102f457600080fd5b506102fd610953565b6040516102df9190613993565b34801561031657600080fd5b5061032a6103253660046139a6565b6109e5565b005b34801561033857600080fd5b5061034c6103473660046139a6565b610ed1565b6040516001600160a01b0390911681526020016102df565b34801561037057600080fd5b5061032a61037f3660046139e4565b610efa565b34801561039057600080fd5b506102d361039f366004613b04565b805160208183018101805160178252928201919093012091525460ff1681565b3480156103cb57600080fd5b506009545b6040519081526020016102df565b61032a6103ec366004613be5565b610f09565b3480156103fd57600080fd5b506103d061040c3660046139a6565b60186020526000908152604090205481565b34801561042a57600080fd5b5061032a610439366004613d8c565b6112af565b34801561044a57600080fd5b506103d06104593660046139a6565b60156020526000908152604090205481565b34801561047757600080fd5b506019546102d39060ff1681565b34801561049157600080fd5b506103d06104a03660046139e4565b611334565b3480156104b157600080fd5b506019546102d390610100900460ff1681565b3480156104d057600080fd5b506103d061c35081565b3480156104e657600080fd5b5061032a611399565b3480156104fb57600080fd5b5061032a61050a366004613d8c565b611420565b34801561051b57600080fd5b50600d5461034c906001600160a01b031681565b34801561053b57600080fd5b506102d361054a366004613b04565b611440565b34801561055b57600080fd5b506103d061056a3660046139a6565b60009081526018602052604090205490565b34801561058857600080fd5b5061032a610597366004613ddd565b61146b565b3480156105a857600080fd5b506103d06105b73660046139a6565b61148d565b3480156105c857600080fd5b506102fd6105d73660046139a6565b6114e6565b61032a6105ea366004613df8565b611580565b3480156105fb57600080fd5b5061034c61060a3660046139a6565b6117df565b34801561061b57600080fd5b506103d0600f5481565b34801561063157600080fd5b506106456106403660046139a6565b6117ea565b6040516102df9796959493929190613ebd565b34801561066457600080fd5b506103d06106733660046139e4565b611a4f565b34801561068457600080fd5b506103d0610693366004613f33565b611a80565b3480156106a457600080fd5b5061032a611ac8565b3480156106b957600080fd5b506106cd6106c8366004613f33565b611adc565b6040516102df96959493929190613fe0565b61032a6106ed3660046140c6565b611f66565b3480156106fe57600080fd5b5061032a61070d366004613ddd565b6120fc565b34801561071e57600080fd5b50600b546001600160a01b031661034c565b34801561073c57600080fd5b506102fd612117565b34801561075157600080fd5b506103d06107603660046139a6565b60116020526000908152604090205481565b34801561077e57600080fd5b5061032a61078d366004614197565b612126565b34801561079e57600080fd5b506103d06107ad366004613b04565b612131565b3480156107be57600080fd5b5061032a6107cd3660046141cc565b612159565b3480156107de57600080fd5b506102fd6107ed3660046139a6565b612171565b3480156107fe57600080fd5b5061034c61080d3660046139a6565b6010602052600090815260409020546001600160a01b031681565b34801561083457600080fd5b506103d061217c565b34801561084957600080fd5b5061085d6108583660046139a6565b6121fc565b6040516102df919061424b565b34801561087657600080fd5b506103d0610885366004613b04565b805160208183018101805160168252928201919093012091525481565b3480156108ae57600080fd5b5061032a6108bd36600461433c565b6126f0565b3480156108ce57600080fd5b506102fd6108dd3660046139a6565b61278e565b3480156108ee57600080fd5b506102d36108fd36600461435e565b6127a7565b34801561090e57600080fd5b5061032a61091d366004613f33565b6127d5565b34801561092e57600080fd5b5061032a61093d3660046139a6565b612810565b600061094d82612853565b92915050565b60606000805461096290614397565b80601f016020809104026020016040519081016040528092919081815260200182805461098e90614397565b80156109db5780601f106109b0576101008083540402835291602001916109db565b820191906000526020600020905b8154815290600101906020018083116109be57829003601f168201915b5050505050905090565b6109ed612878565b601954610100900460ff16610a3e5760405162461bcd60e51b8152602060048201526012602482015271135a59dc985d1a5bdb88191a5cd8589b195960721b60448201526064015b60405180910390fd5b600d546040516331a9108f60e11b81526004810183905233916001600160a01b031690636352211e90602401602060405180830381865afa158015610a87573d6000803e3d6000fd5b505050506040513d601f19601f82011682018060405250810190610aab91906143d1565b6001600160a01b031614610b015760405162461bcd60e51b815260206004820152601960248201527f4e6f74206f776e6572206f66206c656761637920746f6b656e000000000000006044820152606401610a35565b600d546040516333cab3e160e21b8152600481018390526000918291829182918291829182916001600160a01b03169063cf2acf8490602401600060405180830381865afa158015610b57573d6000803e3d6000fd5b505050506040513d6000823e601f3d908101601f19168201604052610b7f91908101906144b2565b9650965096509650965096509650601787604051610b9d91906145b1565b9081526040519081900360200190205460ff1615610bf65760405162461bcd60e51b8152602060048201526016602482015275105cdcd95d08185b1c9958591e481b5a59dc985d195960521b6044820152606401610a35565b600e805460009182610c07836145e3565b9190505590506001601789604051610c1f91906145b1565b908152604051908190036020018120805492151560ff19909316929092179091558190601690610c50908b906145b1565b908152604080516020928190038301812093909355610120830181528a83528183018a9052828101899052606083018890526080830187905260a0830186905260c08301859052611b5960e0840152336101008401526000848152601a909252902081518190610cc09082614642565b5060208201516001820190610cd59082614642565b5060408201516002820190610cea9082614642565b5060608201516003820190610cff9082614642565b5060808201518051610d1b916004840191602090910190613853565b5060a08201518051610d37916005840191602090910190613853565b5060c0820151600682015560e0820151600782015561010090910151600890910180546001600160a01b03199081166001600160a01b0393841617909155600083815260106020908152604080832080543395168517905560118252808320611b5990559282526012815282822080546001810182559083528183200185905584825260159052818120859055600d54915163c87b56dd60e01b8152600481018d90529092919091169063c87b56dd90602401600060405180830381865afa158015610e07573d6000803e3d6000fd5b505050506040513d6000823e601f3d908101601f19168201604052610e2f9190810190614701565b9050610e3b33836128a2565b610e4582826128bc565b604051339083908c907fc92c8192093f853eb0dea87fd6774356f7dcf0bbe4a57e232bb00378be7b0f7890600090a4611b59336001600160a01b0316837fbe04bd06daee91e4052cafe3f299260bd3b522ccb3b4b3e40004db5a26adfb938c85604051610eb3929190614735565b60405180910390a4505050505050505050610ece6001600c55565b50565b6000610edc8261290c565b506000828152600460205260409020546001600160a01b031661094d565b610f05828233612945565b5050565b610f11612878565b600f54341015610f5a5760405162461bcd60e51b8152602060048201526014602482015273125b9cdd59999a58da595b9d081c185e5b595b9d60621b6044820152606401610a35565b6000835111610f9f5760405162461bcd60e51b8152602060048201526011602482015270105cdcd95d081251081c995c5d5a5c9959607a1b6044820152606401610a35565b601783604051610faf91906145b1565b9081526040519081900360200190205460ff16156110065760405162461bcd60e51b8152602060048201526014602482015273105cdcd95d08185b1c9958591e481b5a5b9d195960621b6044820152606401610a35565b61c350600e54111561104f5760405162461bcd60e51b815260206004820152601260248201527113585e081cdd5c1c1b1e481c995858da195960721b6044820152606401610a35565b600e805460009182611060836145e3565b919050559050600160178560405161107891906145b1565b908152604051908190036020018120805492151560ff199093169290921790915581906016906110a99087906145b1565b9081526040805160209281900383019020929092556000838152601a90915220825183919081906110da9082614642565b50602082015160018201906110ef9082614642565b50604082015160028201906111049082614642565b50606082015160038201906111199082614642565b5060808201518051611135916004840191602090910190613853565b5060a08201518051611151916005840191602090910190613853565b5060c0820151600682015560e082015160078083019190915561010090920151600891820180546001600160a01b039283166001600160a01b0319918216179091556000858152601a60209081526040808320469781018890559095018054948c1694841685179055601081528482208054909316841790925560118252838120949094559083526012815281832080546001810182559084528184200184905583835260159052902042905561120885826128a2565b61121281846128bc565b46856001600160a01b0316827fbe04bd06daee91e4052cafe3f299260bd3b522ccb3b4b3e40004db5a26adfb93878760405161124f929190614735565b60405180910390a4600f5434111561129e57600f5433906108fc906112749034614775565b6040518115909202916000818181858888f1935050505015801561129c573d6000803e3d6000fd5b505b506112a96001600c55565b50505050565b6001600160a01b0382166112d957604051633250574960e11b815260006004820152602401610a35565b60006112e6838333612952565b9050836001600160a01b0316816001600160a01b0316146112a9576040516364283d7b60e01b81526001600160a01b0380861660048301526024820184905282166044820152606401610a35565b600061133f83611a80565b82106113705760405163295f44f760e21b81526001600160a01b038416600482015260248101839052604401610a35565b506001600160a01b03919091166000908152600760209081526040808320938352929052205490565b6113a1612967565b47806113e65760405162461bcd60e51b81526020600482015260146024820152734e6f2066756e647320746f20776974686472617760601b6044820152606401610a35565b600b546040516001600160a01b039091169082156108fc029083906000818181858888f19350505050158015610f05573d6000803e3d6000fd5b61143b83838360405180602001604052806000815250612159565b505050565b600060178260405161145291906145b1565b9081526040519081900360200190205460ff1692915050565b611473612967565b601980549115156101000261ff0019909216919091179055565b600061149860095490565b82106114c15760405163295f44f760e21b81526000600482015260248101839052604401610a35565b600982815481106114d4576114d4614788565b90600052602060002001549050919050565b601360205260009081526040902080546114ff90614397565b80601f016020809104026020016040519081016040528092919081815260200182805461152b90614397565b80156115785780601f1061154d57610100808354040283529160200191611578565b820191906000526020600020905b81548152906001019060200180831161155b57829003601f168201915b505050505081565b60195460ff166115d25760405162461bcd60e51b815260206004820152601760248201527f556e6976657273616c206d6f64652064697361626c65640000000000000000006044820152606401610a35565b6115da612878565b61c350600e5411156116235760405162461bcd60e51b815260206004820152601260248201527113585e081cdd5c1c1b1e481c995858da195960721b6044820152606401610a35565b60008451116116685760405162461bcd60e51b8152602060048201526011602482015270105cdcd95d081251081c995c5d5a5c9959607a1b6044820152606401610a35565b60178460405161167891906145b1565b9081526040519081900360200190205460ff16156116cf5760405162461bcd60e51b8152602060048201526014602482015273105cdcd95d08185b1c9958591e481b5a5b9d195960621b6044820152606401610a35565b60004686146116ec576000868152601860205260409020546116f0565b600f545b9050803410156117355760405162461bcd60e51b815260206004820152601060248201526f496e73756666696369656e742066656560801b6044820152606401610a35565b6000611745888888888888612994565b90508134111561178757336108fc61175d8434614775565b6040518115909202916000818181858888f19350505050158015611785573d6000803e3d6000fd5b505b86886001600160a01b03167f4205ddd031512632e77157b2d5c9198e080168dd85df36884ae106e36b53759b88886040516117c392919061479e565b60405180910390a350506117d76001600c55565b505050505050565b600061094d8261290c565b601a6020526000908152604090208054819061180590614397565b80601f016020809104026020016040519081016040528092919081815260200182805461183190614397565b801561187e5780601f106118535761010080835404028352916020019161187e565b820191906000526020600020905b81548152906001019060200180831161186157829003601f168201915b50505050509080600101805461189390614397565b80601f01602080910402602001604051908101604052809291908181526020018280546118bf90614397565b801561190c5780601f106118e15761010080835404028352916020019161190c565b820191906000526020600020905b8154815290600101906020018083116118ef57829003601f168201915b50505050509080600201805461192190614397565b80601f016020809104026020016040519081016040528092919081815260200182805461194d90614397565b801561199a5780601f1061196f5761010080835404028352916020019161199a565b820191906000526020600020905b81548152906001019060200180831161197d57829003601f168201915b5050505050908060030180546119af90614397565b80601f01602080910402602001604051908101604052809291908181526020018280546119db90614397565b8015611a285780601f106119fd57610100808354040283529160200191611a28565b820191906000526020600020905b815481529060010190602001808311611a0b57829003601f168201915b5050505060068301546007840154600890940154929390929091506001600160a01b031687565b60126020528160005260406000208181548110611a6b57600080fd5b90600052602060002001600091509150505481565b60006001600160a01b038216611aac576040516322718ad960e21b815260006004820152602401610a35565b506001600160a01b031660009081526003602052604090205490565b611ad0612967565b611ada6000612c4c565b565b6001600160a01b038116600090815260126020908152604080832080548251818502810185019093528083526060948594859485948594859493830182828015611b4557602002820191906000526020600020905b815481526020019060010190808311611b31575b5050835193945083925050506001600160401b03811115611b6857611b68613a10565b604051908082528060200260200182016040528015611b91578160200160208202803683370190505b509750806001600160401b03811115611bac57611bac613a10565b604051908082528060200260200182016040528015611bdf57816020015b6060815260200190600190039081611bca5790505b509650806001600160401b03811115611bfa57611bfa613a10565b604051908082528060200260200182016040528015611c2d57816020015b6060815260200190600190039081611c185790505b509550806001600160401b03811115611c4857611c48613a10565b604051908082528060200260200182016040528015611c7b57816020015b6060815260200190600190039081611c665790505b509450806001600160401b03811115611c9657611c96613a10565b604051908082528060200260200182016040528015611cbf578160200160208202803683370190505b509350806001600160401b03811115611cda57611cda613a10565b604051908082528060200260200182016040528015611d03578160200160208202803683370190505b50925060005b81811015611f5a576000838281518110611d2557611d25614788565b60200260200101519050808a8381518110611d4257611d42614788565b6020908102919091018101919091526000828152601a909152604090208054611d6a90614397565b80601f0160208091040260200160405190810160405280929190818152602001828054611d9690614397565b8015611de35780601f10611db857610100808354040283529160200191611de3565b820191906000526020600020905b815481529060010190602001808311611dc657829003601f168201915b5050505050898381518110611dfa57611dfa614788565b6020026020010181905250601360008281526020019081526020016000208054611e2390614397565b80601f0160208091040260200160405190810160405280929190818152602001828054611e4f90614397565b8015611e9c5780601f10611e7157610100808354040283529160200191611e9c565b820191906000526020600020905b815481529060010190602001808311611e7f57829003601f168201915b5050505050888381518110611eb357611eb3614788565b6020026020010181905250611ec781612171565b878381518110611ed957611ed9614788565b60200260200101819052506015600082815260200190815260200160002054868381518110611f0a57611f0a614788565b6020026020010181815250506011600082815260200190815260200160002054858381518110611f3c57611f3c614788565b60209081029190910101525080611f52816145e3565b915050611d09565b50505091939550919395565b611f6e612967565b8351855114611f8f5760405162461bcd60e51b8152600401610a35906147c3565b8251845114611fb05760405162461bcd60e51b8152600401610a35906147c3565b8151835114611fd15760405162461bcd60e51b8152600401610a35906147c3565b8051825114611ff25760405162461bcd60e51b8152600401610a35906147c3565b61c3508551600e5461200491906147f2565b11156120525760405162461bcd60e51b815260206004820152601760248201527f576f756c6420657863656564206d617820737570706c790000000000000000006044820152606401610a35565b60005b85518110156117d7576120e986828151811061207357612073614788565b60200260200101514687848151811061208e5761208e614788565b60200260200101518785815181106120a8576120a8614788565b60200260200101518786815181106120c2576120c2614788565b60200260200101518787815181106120dc576120dc614788565b6020026020010151612994565b50806120f4816145e3565b915050612055565b612104612967565b6019805460ff1916911515919091179055565b60606001805461096290614397565b610f05338383612c9e565b600060168260405161214391906145b1565b9081526020016040518091039020549050919050565b6121648484846112af565b6112a93385858585612d3d565b606061094d82612e66565b600d54604080516318160ddd60e01b815290516000926001600160a01b0316916318160ddd9160048083019260209291908290030181865afa1580156121c6573d6000803e3d6000fd5b505050506040513d601f19601f820116820180604052508101906121ea9190614805565b6009546121f791906147f2565b905090565b612254604051806101200160405280606081526020016060815260200160608152602001606081526020016060815260200160608152602001600081526020016000815260200160006001600160a01b031681525090565b6000828152600260205260409020546001600160a01b03166122af5760405162461bcd60e51b8152602060048201526014602482015273151bdad95b88191bd95cc81b9bdd08195e1a5cdd60621b6044820152606401610a35565b6000828152601a602052604090819020815161012081019092528054829082906122d890614397565b80601f016020809104026020016040519081016040528092919081815260200182805461230490614397565b80156123515780601f1061232657610100808354040283529160200191612351565b820191906000526020600020905b81548152906001019060200180831161233457829003601f168201915b5050505050815260200160018201805461236a90614397565b80601f016020809104026020016040519081016040528092919081815260200182805461239690614397565b80156123e35780601f106123b8576101008083540402835291602001916123e3565b820191906000526020600020905b8154815290600101906020018083116123c657829003601f168201915b505050505081526020016002820180546123fc90614397565b80601f016020809104026020016040519081016040528092919081815260200182805461242890614397565b80156124755780601f1061244a57610100808354040283529160200191612475565b820191906000526020600020905b81548152906001019060200180831161245857829003601f168201915b5050505050815260200160038201805461248e90614397565b80601f01602080910402602001604051908101604052809291908181526020018280546124ba90614397565b80156125075780601f106124dc57610100808354040283529160200191612507565b820191906000526020600020905b8154815290600101906020018083116124ea57829003601f168201915b5050505050815260200160048201805480602002602001604051908101604052809291908181526020016000905b828210156125e157838290600052602060002001805461255490614397565b80601f016020809104026020016040519081016040528092919081815260200182805461258090614397565b80156125cd5780601f106125a2576101008083540402835291602001916125cd565b820191906000526020600020905b8154815290600101906020018083116125b057829003601f168201915b505050505081526020019060010190612535565b50505050815260200160058201805480602002602001604051908101604052809291908181526020016000905b828210156126ba57838290600052602060002001805461262d90614397565b80601f016020809104026020016040519081016040528092919081815260200182805461265990614397565b80156126a65780601f1061267b576101008083540402835291602001916126a6565b820191906000526020600020905b81548152906001019060200180831161268957829003601f168201915b50505050508152602001906001019061260e565b5050509082525060068201546020820152600782015460408201526008909101546001600160a01b031660609091015292915050565b6126f8612967565b816000811161273c5760405162461bcd60e51b815260206004820152601060248201526f125b9d985b1a590818da185a5b88125160821b6044820152606401610a35565b600083815260186020526040908190208390555183907fdbb85affc48fdffe974d7195e80676b578f8866247654e16a6c77ff8db2032ef906127819085815260200190565b60405180910390a2505050565b601460205260009081526040902080546114ff90614397565b6001600160a01b03918216600090815260056020908152604080832093909416825291909152205460ff1690565b6127dd612967565b6001600160a01b03811661280757604051631e4fbdf760e01b815260006004820152602401610a35565b610ece81612c4c565b612818612967565b600f8190556040518181527f525b762709cc2a983aec5ccdfd807a061f993c91090b5bcd7da92ca254976aaa9060200160405180910390a150565b60006001600160e01b0319821663780e9d6360e01b148061094d575061094d82612f6f565b6002600c540361289b57604051633ee5aeb560e01b815260040160405180910390fd5b6002600c55565b610f05828260405180602001604052806000815250612f94565b60008281526006602052604090206128d48282614642565b506040518281527ff8e1a15aba9398e019f0b49df1a4fde98ee17ae345cb5f6b5e2c27f5033e8ce79060200160405180910390a15050565b6000818152600260205260408120546001600160a01b03168061094d57604051637e27328960e01b815260048101849052602401610a35565b61143b8383836001612fac565b600061295f8484846130b2565b949350505050565b600b546001600160a01b03163314611ada5760405163118cdaa760e01b8152336004820152602401610a35565b600e8054600091829190826129a8836145e3565b91905055905060016017876040516129c091906145b1565b908152604051908190036020018120805492151560ff199093169290921790915581906016906129f19089906145b1565b9081526040805160209281900383019020929092556000838152601390915220612a1b8682614642565b506000818152601460205260409020612a348482614642565b5060008181526015602090815260408083204290556010825280832080546001600160a01b0319166001600160a01b038d16908117909155601183528184208b90558352601282528083208054600181018255908452928290209092018390558151610120810190925287825260609182918101612ab18561317f565b604051602001612ac1919061481e565b60405160208183030381529060405281526020018881526020018781526020018381526020018281526020014281526020018a81526020018b6001600160a01b0316815250601a60008581526020019081526020016000206000820151816000019081612b2e9190614642565b5060208201516001820190612b439082614642565b5060408201516002820190612b589082614642565b5060608201516003820190612b6d9082614642565b5060808201518051612b89916004840191602090910190613853565b5060a08201518051612ba5916005840191602090910190613853565b5060c0820151600682015560e0820151600782015561010090910151600890910180546001600160a01b0319166001600160a01b03909216919091179055612bed8a846128a2565b612bf783876128bc565b888a6001600160a01b0316847fbe04bd06daee91e4052cafe3f299260bd3b522ccb3b4b3e40004db5a26adfb938b8b8b604051612c3693929190614854565b60405180910390a4509098975050505050505050565b600b80546001600160a01b038381166001600160a01b0319831681179093556040519116919082907f8be0079c531659141344cd1fd0a4f28419497f9722a3daafe3b4186f6b6457e090600090a35050565b6001600160a01b038216612cd057604051630b61174360e31b81526001600160a01b0383166004820152602401610a35565b6001600160a01b03838116600081815260056020908152604080832094871680845294825291829020805460ff191686151590811790915591519182527f17307eab39ab6107e8899845ad3d59bd9653f200f220920489ca2b5937696c31910160405180910390a3505050565b6001600160a01b0383163b15612e5f57604051630a85bd0160e11b81526001600160a01b0384169063150b7a0290612d7f908890889087908790600401614897565b6020604051808303816000875af1925050508015612dba575060408051601f3d908101601f19168201909252612db7918101906148ca565b60015b612e23573d808015612de8576040519150601f19603f3d011682016040523d82523d6000602084013e612ded565b606091505b508051600003612e1b57604051633250574960e11b81526001600160a01b0385166004820152602401610a35565b805160208201fd5b6001600160e01b03198116630a85bd0160e11b146117d757604051633250574960e11b81526001600160a01b0385166004820152602401610a35565b5050505050565b6060612e718261290c565b5060008281526006602052604081208054612e8b90614397565b80601f0160208091040260200160405190810160405280929190818152602001828054612eb790614397565b8015612f045780601f10612ed957610100808354040283529160200191612f04565b820191906000526020600020905b815481529060010190602001808311612ee757829003601f168201915b505050505090506000612f2260408051602081019091526000815290565b90508051600003612f34575092915050565b815115612f66578082604051602001612f4e9291906148e7565b60405160208183030381529060405292505050919050565b61295f8461327f565b60006001600160e01b03198216632483248360e11b148061094d575061094d826132f4565b612f9e8383613344565b61143b336000858585612d3d565b8080612fc057506001600160a01b03821615155b15613082576000612fd08461290c565b90506001600160a01b03831615801590612ffc5750826001600160a01b0316816001600160a01b031614155b801561300f575061300d81846127a7565b155b156130385760405163a9fbf51f60e01b81526001600160a01b0384166004820152602401610a35565b81156130805783856001600160a01b0316826001600160a01b03167f8c5be1e5ebec7d5bd14f71427d1e84f3dd0314c0f7b2291e5b200ac8c7c3b92560405160405180910390a45b505b5050600090815260046020526040902080546001600160a01b0319166001600160a01b0392909216919091179055565b6000806130c08585856133a9565b90506001600160a01b03811661311d5761311884600980546000838152600a60205260408120829055600182018355919091527f6e1540171b6c0c960b71a7020d9f60077f6af931a8bbf590da0223dacf75c7af0155565b613140565b846001600160a01b0316816001600160a01b0316146131405761314081856134a2565b6001600160a01b03851661315c5761315784613523565b61295f565b846001600160a01b0316816001600160a01b03161461295f5761295f85856135d2565b6060816000036131a65750506040805180820190915260018152600360fc1b602082015290565b8160005b81156131d057806131ba816145e3565b91506131c99050600a8361492c565b91506131aa565b6000816001600160401b038111156131ea576131ea613a10565b6040519080825280601f01601f191660200182016040528015613214576020820181803683370190505b5090505b841561295f57613229600183614775565b9150613236600a86614940565b6132419060306147f2565b60f81b81838151811061325657613256614788565b60200101906001600160f81b031916908160001a905350613278600a8661492c565b9450613218565b606061328a8261290c565b5060006132a260408051602081019091526000815290565b905060008151116132c257604051806020016040528060008152506132ed565b806132cc84613622565b6040516020016132dd9291906148e7565b6040516020818303038152906040525b9392505050565b60006001600160e01b031982166380ac58cd60e01b148061332557506001600160e01b03198216635b5e139f60e01b145b8061094d57506301ffc9a760e01b6001600160e01b031983161461094d565b6001600160a01b03821661336e57604051633250574960e11b815260006004820152602401610a35565b600061337c83836000612952565b90506001600160a01b0381161561143b576040516339e3563760e11b815260006004820152602401610a35565b6000828152600260205260408120546001600160a01b03908116908316156133d6576133d68184866136b4565b6001600160a01b03811615613414576133f3600085600080612fac565b6001600160a01b038116600090815260036020526040902080546000190190555b6001600160a01b03851615613443576001600160a01b0385166000908152600360205260409020805460010190555b60008481526002602052604080822080546001600160a01b0319166001600160a01b0389811691821790925591518793918516917fddf252ad1be2c89b69c2b068fc378daa952ba7f163c4a11628f55a4df523b3ef91a4949350505050565b60006134ad83611a80565b6000838152600860209081526040808320546001600160a01b038816845260079092529091209192509081831461350457600083815260208281526040808320548584528184208190558352600890915290208290555b6000938452600860209081526040808620869055938552525081205550565b60095460009061353590600190614775565b6000838152600a60205260408120546009805493945090928490811061355d5761355d614788565b90600052602060002001549050806009838154811061357e5761357e614788565b6000918252602080832090910192909255828152600a909152604080822084905585825281205560098054806135b6576135b6614954565b6001900381819060005260206000200160009055905550505050565b600060016135df84611a80565b6135e99190614775565b6001600160a01b039093166000908152600760209081526040808320868452825280832085905593825260089052919091209190915550565b6060600061362f83613718565b60010190506000816001600160401b0381111561364e5761364e613a10565b6040519080825280601f01601f191660200182016040528015613678576020820181803683370190505b5090508181016020015b600019016f181899199a1a9b1b9c1cb0b131b232b360811b600a86061a8153600a850494508461368257509392505050565b6136bf8383836137f0565b61143b576001600160a01b0383166136ed57604051637e27328960e01b815260048101829052602401610a35565b60405163177e802f60e01b81526001600160a01b038316600482015260248101829052604401610a35565b60008072184f03e93ff9f4daa797ed6e38ed64bf6a1f0160401b83106137575772184f03e93ff9f4daa797ed6e38ed64bf6a1f0160401b830492506040015b6d04ee2d6d415b85acef81000000008310613783576d04ee2d6d415b85acef8100000000830492506020015b662386f26fc1000083106137a157662386f26fc10000830492506010015b6305f5e10083106137b9576305f5e100830492506008015b61271083106137cd57612710830492506004015b606483106137df576064830492506002015b600a831061094d5760010192915050565b60006001600160a01b0383161580159061295f5750826001600160a01b0316846001600160a01b0316148061382a575061382a84846127a7565b8061295f5750506000908152600460205260409020546001600160a01b03908116911614919050565b828054828255906000526020600020908101928215613899579160200282015b8281111561389957825182906138899082614642565b5091602001919060010190613873565b506138a59291506138a9565b5090565b808211156138a55760006138bd82826138c6565b506001016138a9565b5080546138d290614397565b6000825580601f106138e2575050565b601f016020900490600052602060002090810190610ece91905b808211156138a557600081556001016138fc565b6001600160e01b031981168114610ece57600080fd5b60006020828403121561393857600080fd5b81356132ed81613910565b60005b8381101561395e578181015183820152602001613946565b50506000910152565b6000815180845261397f816020860160208601613943565b601f01601f19169290920160200192915050565b6020815260006132ed6020830184613967565b6000602082840312156139b857600080fd5b5035919050565b6001600160a01b0381168114610ece57600080fd5b80356139df816139bf565b919050565b600080604083850312156139f757600080fd5b8235613a02816139bf565b946020939093013593505050565b634e487b7160e01b600052604160045260246000fd5b60405161012081016001600160401b0381118282101715613a4957613a49613a10565b60405290565b604051601f8201601f191681016001600160401b0381118282101715613a7757613a77613a10565b604052919050565b60006001600160401b03821115613a9857613a98613a10565b50601f01601f191660200190565b6000613ab9613ab484613a7f565b613a4f565b9050828152838383011115613acd57600080fd5b828260208301376000602084830101529392505050565b600082601f830112613af557600080fd5b6132ed83833560208501613aa6565b600060208284031215613b1657600080fd5b81356001600160401b03811115613b2c57600080fd5b61295f84828501613ae4565b60006001600160401b03821115613b5157613b51613a10565b5060051b60200190565b600082601f830112613b6c57600080fd5b81356020613b7c613ab483613b38565b82815260059290921b84018101918181019086841115613b9b57600080fd5b8286015b84811015613bda5780356001600160401b03811115613bbe5760008081fd5b613bcc8986838b0101613ae4565b845250918301918301613b9f565b509695505050505050565b60008060008060808587031215613bfb57600080fd5b8435613c06816139bf565b935060208501356001600160401b0380821115613c2257600080fd5b613c2e88838901613ae4565b94506040870135915080821115613c4457600080fd5b613c5088838901613ae4565b93506060870135915080821115613c6657600080fd5b908601906101208289031215613c7b57600080fd5b613c83613a26565b823582811115613c9257600080fd5b613c9e8a828601613ae4565b825250602083013582811115613cb357600080fd5b613cbf8a828601613ae4565b602083015250604083013582811115613cd757600080fd5b613ce38a828601613ae4565b604083015250606083013582811115613cfb57600080fd5b613d078a828601613ae4565b606083015250608083013582811115613d1f57600080fd5b613d2b8a828601613b5b565b60808301525060a083013582811115613d4357600080fd5b613d4f8a828601613b5b565b60a08301525060c083013560c082015260e083013560e08201526101009150613d798284016139d4565b8282015280935050505092959194509250565b600080600060608486031215613da157600080fd5b8335613dac816139bf565b92506020840135613dbc816139bf565b929592945050506040919091013590565b803580151581146139df57600080fd5b600060208284031215613def57600080fd5b6132ed82613dcd565b60008060008060008060c08789031215613e1157600080fd5b613e1a876139d4565b95506020870135945060408701356001600160401b0380821115613e3d57600080fd5b613e498a838b01613ae4565b95506060890135915080821115613e5f57600080fd5b613e6b8a838b01613ae4565b94506080890135915080821115613e8157600080fd5b613e8d8a838b01613ae4565b935060a0890135915080821115613ea357600080fd5b50613eb089828a01613ae4565b9150509295509295509295565b60e081526000613ed060e083018a613967565b8281036020840152613ee2818a613967565b90508281036040840152613ef68189613967565b90508281036060840152613f0a8188613967565b6080840196909652505060a08101929092526001600160a01b031660c090910152949350505050565b600060208284031215613f4557600080fd5b81356132ed816139bf565b600081518084526020808501945080840160005b83811015613f8057815187529582019590820190600101613f64565b509495945050505050565b600081518084526020808501808196508360051b8101915082860160005b85811015613fd3578284038952613fc1848351613967565b98850198935090840190600101613fa9565b5091979650505050505050565b60c081526000613ff360c0830189613f50565b82810360208401526140058189613f8b565b905082810360408401526140198188613f8b565b9050828103606084015261402d8187613f8b565b905082810360808401526140418186613f50565b905082810360a08401526140558185613f50565b9998505050505050505050565b600082601f83011261407357600080fd5b81356020614083613ab483613b38565b82815260059290921b840181019181810190868411156140a257600080fd5b8286015b84811015613bda5780356140b9816139bf565b83529183019183016140a6565b600080600080600060a086880312156140de57600080fd5b85356001600160401b03808211156140f557600080fd5b61410189838a01614062565b9650602088013591508082111561411757600080fd5b61412389838a01613b5b565b9550604088013591508082111561413957600080fd5b61414589838a01613b5b565b9450606088013591508082111561415b57600080fd5b61416789838a01613b5b565b9350608088013591508082111561417d57600080fd5b5061418a88828901613b5b565b9150509295509295909350565b600080604083850312156141aa57600080fd5b82356141b5816139bf565b91506141c360208401613dcd565b90509250929050565b600080600080608085870312156141e257600080fd5b84356141ed816139bf565b935060208501356141fd816139bf565b92506040850135915060608501356001600160401b0381111561421f57600080fd5b8501601f8101871361423057600080fd5b61423f87823560208401613aa6565b91505092959194509250565b602081526000825161012080602085015261426a610140850183613967565b91506020850151601f19808685030160408701526142888483613967565b935060408701519150808685030160608701526142a58483613967565b935060608701519150808685030160808701526142c28483613967565b935060808701519150808685030160a08701526142df8483613f8b565b935060a08701519150808685030160c0870152506142fd8382613f8b565b92505060c085015160e085015260e0850151610100818187015280870151915050614332828601826001600160a01b03169052565b5090949350505050565b6000806040838503121561434f57600080fd5b50508035926020909101359150565b6000806040838503121561437157600080fd5b823561437c816139bf565b9150602083013561438c816139bf565b809150509250929050565b600181811c908216806143ab57607f821691505b6020821081036143cb57634e487b7160e01b600052602260045260246000fd5b50919050565b6000602082840312156143e357600080fd5b81516132ed816139bf565b600082601f8301126143ff57600080fd5b815161440d613ab482613a7f565b81815284602083860101111561442257600080fd5b61295f826020830160208701613943565b600082601f83011261444457600080fd5b81516020614454613ab483613b38565b82815260059290921b8401810191818101908684111561447357600080fd5b8286015b84811015613bda5780516001600160401b038111156144965760008081fd5b6144a48986838b01016143ee565b845250918301918301614477565b600080600080600080600060e0888a0312156144cd57600080fd5b87516001600160401b03808211156144e457600080fd5b6144f08b838c016143ee565b985060208a015191508082111561450657600080fd5b6145128b838c016143ee565b975060408a015191508082111561452857600080fd5b6145348b838c016143ee565b965060608a015191508082111561454a57600080fd5b6145568b838c016143ee565b955060808a015191508082111561456c57600080fd5b6145788b838c01614433565b945060a08a015191508082111561458e57600080fd5b5061459b8a828b01614433565b92505060c0880151905092959891949750929550565b600082516145c3818460208701613943565b9190910192915050565b634e487b7160e01b600052601160045260246000fd5b6000600182016145f5576145f56145cd565b5060010190565b601f82111561143b57600081815260208120601f850160051c810160208610156146235750805b601f850160051c820191505b818110156117d75782815560010161462f565b81516001600160401b0381111561465b5761465b613a10565b61466f816146698454614397565b846145fc565b602080601f8311600181146146a4576000841561468c5750858301515b600019600386901b1c1916600185901b1785556117d7565b600085815260208120601f198616915b828110156146d3578886015182559484019460019091019084016146b4565b50858210156146f15787850151600019600388901b60f8161c191681555b5050505050600190811b01905550565b60006020828403121561471357600080fd5b81516001600160401b0381111561472957600080fd5b61295f848285016143ee565b6060815260006147486060830185613967565b828103806020850152600082526020810160408501525061476c6020820185613967565b95945050505050565b8181038181111561094d5761094d6145cd565b634e487b7160e01b600052603260045260246000fd5b6040815260006147b16040830185613967565b828103602084015261476c8185613967565b602080825260159082015274082e4e4c2f240d8cadccee8d040dad2e6dac2e8c6d605b1b604082015260600190565b8082018082111561094d5761094d6145cd565b60006020828403121561481757600080fd5b5051919050565b6d5a657461466f726765204149202360901b81526000825161484781600e850160208701613943565b91909101600e0192915050565b6060815260006148676060830186613967565b82810360208401526148798186613967565b9050828103604084015261488d8185613967565b9695505050505050565b6001600160a01b038581168252841660208201526040810183905260806060820181905260009061488d90830184613967565b6000602082840312156148dc57600080fd5b81516132ed81613910565b600083516148f9818460208801613943565b83519083019061490d818360208801613943565b01949350505050565b634e487b7160e01b600052601260045260246000fd5b60008261493b5761493b614916565b500490565b60008261494f5761494f614916565b500690565b634e487b7160e01b600052603160045260246000fdfea2646970667358221220542c18d302e2a7cc919b1284af840a76a925b708eebdceb1123d1adb8767098064736f6c63430008140033",
  "linkReferences": {},
  "deployedLinkReferences": {}
}