{
  "_format": "hh-sol-artifact-1",
  "contractName": "ZetaGenNFT",
  "sourceName": "contracts/ZetaGenNFT.sol",
  "abi": [
    {
      "inputs": [
        {
          "internalType": "string",
          "name": "name",
          "type": "string"
        },
        {
          "internalType": "string",
          "name": "symbol",
          "type": "string"
        },
        {
          "internalType": "address",
          "name": "initialOwner",
          "type": "address"
        }
      ],
      "stateMutability": "nonpayable",
      "type": "constructor"
    },
    {
      "inputs": [],
      "name": "ERC721EnumerableForbiddenBatchMint",
      "type": "error"
    },
    {
      "inputs": [
        {
          "internalType": "address",
          "name": "sender",
          "type": "address"
        },
        {
          "internalType": "uint256",
          "name": "tokenId",
          "type": "uint256"
        },
        {
          "internalType": "address",
          "name": "owner",
          "type": "address"
        }
      ],
      "name": "ERC721IncorrectOwner",
      "type": "error"
    },
    {
      "inputs": [
        {
          "internalType": "address",
          "name": "operator",
          "type": "address"
        },
        {
          "internalType": "uint256",
          "name": "tokenId",
          "type": "uint256"
        }
      ],
      "name": "ERC721InsufficientApproval",
      "type": "error"
    },
    {
      "inputs": [
        {
          "internalType": "address",
          "name": "approver",
          "type": "address"
        }
      ],
      "name": "ERC721InvalidApprover",
      "type": "error"
    },
    {
      "inputs": [
        {
          "internalType": "address",
          "name": "operator",
          "type": "address"
        }
      ],
      "name": "ERC721InvalidOperator",
      "type": "error"
    },
    {
      "inputs": [
        {
          "internalType": "address",
          "name": "owner",
          "type": "address"
        }
      ],
      "name": "ERC721InvalidOwner",
      "type": "error"
    },
    {
      "inputs": [
        {
          "internalType": "address",
          "name": "receiver",
          "type": "address"
        }
      ],
      "name": "ERC721InvalidReceiver",
      "type": "error"
    },
    {
      "inputs": [
        {
          "internalType": "address",
          "name": "sender",
          "type": "address"
        }
      ],
      "name": "ERC721InvalidSender",
      "type": "error"
    },
    {
      "inputs": [
        {
          "internalType": "uint256",
          "name": "tokenId",
          "type": "uint256"
        }
      ],
      "name": "ERC721NonexistentToken",
      "type": "error"
    },
    {
      "inputs": [
        {
          "internalType": "address",
          "name": "owner",
          "type": "address"
        },
        {
          "internalType": "uint256",
          "name": "index",
          "type": "uint256"
        }
      ],
      "name": "ERC721OutOfBoundsIndex",
      "type": "error"
    },
    {
      "inputs": [
        {
          "internalType": "address",
          "name": "owner",
          "type": "address"
        }
      ],
      "name": "OwnableInvalidOwner",
      "type": "error"
    },
    {
      "inputs": [
        {
          "internalType": "address",
          "name": "account",
          "type": "address"
        }
      ],
      "name": "OwnableUnauthorizedAccount",
      "type": "error"
    },
    {
      "inputs": [],
      "name": "ReentrancyGuardReentrantCall",
      "type": "error"
    },
    {
      "anonymous": false,
      "inputs": [
        {
          "indexed": true,
          "internalType": "address",
          "name": "owner",
          "type": "address"
        },
        {
          "indexed": true,
          "internalType": "address",
          "name": "approved",
          "type": "address"
        },
        {
          "indexed": true,
          "internalType": "uint256",
          "name": "tokenId",
          "type": "uint256"
        }
      ],
      "name": "Approval",
      "type": "event"
    },
    {
      "anonymous": false,
      "inputs": [
        {
          "indexed": true,
          "internalType": "address",
          "name": "owner",
          "type": "address"
        },
        {
          "indexed": true,
          "internalType": "address",
          "name": "operator",
          "type": "address"
        },
        {
          "indexed": false,
          "internalType": "bool",
          "name": "approved",
          "type": "bool"
        }
      ],
      "name": "ApprovalForAll",
      "type": "event"
    },
    {
      "anonymous": false,
      "inputs": [
        {
          "indexed": true,
          "internalType": "string",
          "name": "assetId",
          "type": "string"
        },
        {
          "indexed": true,
          "internalType": "uint256",
          "name": "tokenId",
          "type": "uint256"
        },
        {
          "indexed": true,
          "internalType": "address",
          "name": "owner",
          "type": "address"
        },
        {
          "indexed": false,
          "internalType": "string",
          "name": "tokenURI",
          "type": "string"
        }
      ],
      "name": "AssetMinted",
      "type": "event"
    },
    {
      "anonymous": false,
      "inputs": [
        {
          "indexed": false,
          "internalType": "uint256",
          "name": "_fromTokenId",
          "type": "uint256"
        },
        {
          "indexed": false,
          "internalType": "uint256",
          "name": "_toTokenId",
          "type": "uint256"
        }
      ],
      "name": "BatchMetadataUpdate",
      "type": "event"
    },
    {
      "anonymous": false,
      "inputs": [
        {
          "indexed": false,
          "internalType": "uint256",
          "name": "_tokenId",
          "type": "uint256"
        }
      ],
      "name": "MetadataUpdate",
      "type": "event"
    },
    {
      "anonymous": false,
      "inputs": [
        {
          "indexed": false,
          "internalType": "uint256",
          "name": "oldPrice",
          "type": "uint256"
        },
        {
          "indexed": false,
          "internalType": "uint256",
          "name": "newPrice",
          "type": "uint256"
        }
      ],
      "name": "MintPriceUpdated",
      "type": "event"
    },
    {
      "anonymous": false,
      "inputs": [
        {
          "indexed": false,
          "internalType": "bool",
          "name": "enabled",
          "type": "bool"
        }
      ],
      "name": "MintingToggled",
      "type": "event"
    },
    {
      "anonymous": false,
      "inputs": [
        {
          "indexed": true,
          "internalType": "address",
          "name": "previousOwner",
          "type": "address"
        },
        {
          "indexed": true,
          "internalType": "address",
          "name": "newOwner",
          "type": "address"
        }
      ],
      "name": "OwnershipTransferred",
      "type": "event"
    },
    {
      "anonymous": false,
      "inputs": [
        {
          "indexed": true,
          "internalType": "address",
          "name": "from",
          "type": "address"
        },
        {
          "indexed": true,
          "internalType": "address",
          "name": "to",
          "type": "address"
        },
        {
          "indexed": true,
          "internalType": "uint256",
          "name": "tokenId",
          "type": "uint256"
        }
      ],
      "name": "Transfer",
      "type": "event"
    },
    {
      "inputs": [
        {
          "internalType": "address",
          "name": "to",
          "type": "address"
        },
        {
          "internalType": "uint256",
          "name": "tokenId",
          "type": "uint256"
        }
      ],
      "name": "approve",
      "outputs": [],
      "stateMutability": "nonpayable",
      "type": "function"
    },
    {
      "inputs": [
        {
          "internalType": "string",
          "name": "",
          "type": "string"
        }
      ],
      "name": "assetIdToTokenId",
      "outputs": [
        {
          "internalType": "uint256",
          "name": "",
          "type": "uint256"
        }
      ],
      "stateMutability": "view",
      "type": "function"
    },
    {
      "inputs": [
        {
          "internalType": "address",
          "name": "owner",
          "type": "address"
        }
      ],
      "name": "balanceOf",
      "outputs": [
        {
          "internalType": "uint256",
          "name": "",
          "type": "uint256"
        }
      ],
      "stateMutability": "view",
      "type": "function"
    },
    {
      "inputs": [
        {
          "internalType": "address[]",
          "name": "recipients",
          "type": "address[]"
        },
        {
          "internalType": "string[]",
          "name": "assetIds",
          "type": "string[]"
        },
        {
          "internalType": "string[]",
          "name": "metadataURIs",
          "type": "string[]"
        },
        {
          "components": [
            {
              "internalType": "string",
              "name": "assetId",
              "type": "string"
            },
            {
              "internalType": "string",
              "name": "name",
              "type": "string"
            },
            {
              "internalType": "string",
              "name": "description",
              "type": "string"
            },
            {
              "internalType": "string",
              "name": "imageUrl",
              "type": "string"
            },
            {
              "internalType": "string[]",
              "name": "traitTypes",
              "type": "string[]"
            },
            {
              "internalType": "string[]",
              "name": "traitValues",
              "type": "string[]"
            },
            {
              "internalType": "uint256",
              "name": "timestamp",
              "type": "uint256"
            }
          ],
          "internalType": "struct ZetaGenNFT.AssetMetadata[]",
          "name": "metadataArray",
          "type": "tuple[]"
        }
      ],
      "name": "batchMintAssets",
      "outputs": [],
      "stateMutability": "nonpayable",
      "type": "function"
    },
    {
      "inputs": [
        {
          "internalType": "address payable",
          "name": "to",
          "type": "address"
        }
      ],
      "name": "emergencyWithdraw",
      "outputs": [],
      "stateMutability": "nonpayable",
      "type": "function"
    },
    {
      "inputs": [
        {
          "internalType": "uint256",
          "name": "tokenId",
          "type": "uint256"
        }
      ],
      "name": "getApproved",
      "outputs": [
        {
          "internalType": "address",
          "name": "",
          "type": "address"
        }
      ],
      "stateMutability": "view",
      "type": "function"
    },
    {
      "inputs": [
        {
          "internalType": "uint256",
          "name": "tokenId",
          "type": "uint256"
        }
      ],
      "name": "getAssetMetadata",
      "outputs": [
        {
          "components": [
            {
              "internalType": "string",
              "name": "assetId",
              "type": "string"
            },
            {
              "internalType": "string",
              "name": "name",
              "type": "string"
            },
            {
              "internalType": "string",
              "name": "description",
              "type": "string"
            },
            {
              "internalType": "string",
              "name": "imageUrl",
              "type": "string"
            },
            {
              "internalType": "string[]",
              "name": "traitTypes",
              "type": "string[]"
            },
            {
              "internalType": "string[]",
              "name": "traitValues",
              "type": "string[]"
            },
            {
              "internalType": "uint256",
              "name": "timestamp",
              "type": "uint256"
            }
          ],
          "internalType": "struct ZetaGenNFT.AssetMetadata",
          "name": "",
          "type": "tuple"
        }
      ],
      "stateMutability": "view",
      "type": "function"
    },
    {
      "inputs": [
        {
          "internalType": "string",
          "name": "assetId",
          "type": "string"
        }
      ],
      "name": "getTokenIdByAssetId",
      "outputs": [
        {
          "internalType": "uint256",
          "name": "",
          "type": "uint256"
        }
      ],
      "stateMutability": "view",
      "type": "function"
    },
    {
      "inputs": [
        {
          "internalType": "address",
          "name": "owner",
          "type": "address"
        }
      ],
      "name": "getTokensByOwner",
      "outputs": [
        {
          "internalType": "uint256[]",
          "name": "",
          "type": "uint256[]"
        }
      ],
      "stateMutability": "view",
      "type": "function"
    },
    {
      "inputs": [
        {
          "internalType": "address",
          "name": "owner",
          "type": "address"
        },
        {
          "internalType": "address",
          "name": "operator",
          "type": "address"
        }
      ],
      "name": "isApprovedForAll",
      "outputs": [
        {
          "internalType": "bool",
          "name": "",
          "type": "bool"
        }
      ],
      "stateMutability": "view",
      "type": "function"
    },
    {
      "inputs": [
        {
          "internalType": "string",
          "name": "assetId",
          "type": "string"
        }
      ],
      "name": "isAssetMinted",
      "outputs": [
        {
          "internalType": "bool",
          "name": "",
          "type": "bool"
        }
      ],
      "stateMutability": "view",
      "type": "function"
    },
    {
      "inputs": [],
      "name": "maxSupply",
      "outputs": [
        {
          "internalType": "uint256",
          "name": "",
          "type": "uint256"
        }
      ],
      "stateMutability": "view",
      "type": "function"
    },
    {
      "inputs": [
        {
          "internalType": "address",
          "name": "to",
          "type": "address"
        },
        {
          "internalType": "string",
          "name": "assetId",
          "type": "string"
        },
        {
          "internalType": "string",
          "name": "metadataURI",
          "type": "string"
        },
        {
          "components": [
            {
              "internalType": "string",
              "name": "assetId",
              "type": "string"
            },
            {
              "internalType": "string",
              "name": "name",
              "type": "string"
            },
            {
              "internalType": "string",
              "name": "description",
              "type": "string"
            },
            {
              "internalType": "string",
              "name": "imageUrl",
              "type": "string"
            },
            {
              "internalType": "string[]",
              "name": "traitTypes",
              "type": "string[]"
            },
            {
              "internalType": "string[]",
              "name": "traitValues",
              "type": "string[]"
            },
            {
              "internalType": "uint256",
              "name": "timestamp",
              "type": "uint256"
            }
          ],
          "internalType": "struct ZetaGenNFT.AssetMetadata",
          "name": "metadata",
          "type": "tuple"
        }
      ],
      "name": "mintAsset",
      "outputs": [],
      "stateMutability": "payable",
      "type": "function"
    },
    {
      "inputs": [],
      "name": "mintPrice",
      "outputs": [
        {
          "internalType": "uint256",
          "name": "",
          "type": "uint256"
        }
      ],
      "stateMutability": "view",
      "type": "function"
    },
    {
      "inputs": [
        {
          "internalType": "string",
          "name": "",
          "type": "string"
        }
      ],
      "name": "mintedAssets",
      "outputs": [
        {
          "internalType": "bool",
          "name": "",
          "type": "bool"
        }
      ],
      "stateMutability": "view",
      "type": "function"
    },
    {
      "inputs": [],
      "name": "mintingEnabled",
      "outputs": [
        {
          "internalType": "bool",
          "name": "",
          "type": "bool"
        }
      ],
      "stateMutability": "view",
      "type": "function"
    },
    {
      "inputs": [],
      "name": "name",
      "outputs": [
        {
          "internalType": "string",
          "name": "",
          "type": "string"
        }
      ],
      "stateMutability": "view",
      "type": "function"
    },
    {
      "inputs": [],
      "name": "owner",
      "outputs": [
        {
          "internalType": "address",
          "name": "",
          "type": "address"
        }
      ],
      "stateMutability": "view",
      "type": "function"
    },
    {
      "inputs": [
        {
          "internalType": "uint256",
          "name": "tokenId",
          "type": "uint256"
        }
      ],
      "name": "ownerOf",
      "outputs": [
        {
          "internalType": "address",
          "name": "",
          "type": "address"
        }
      ],
      "stateMutability": "view",
      "type": "function"
    },
    {
      "inputs": [],
      "name": "renounceOwnership",
      "outputs": [],
      "stateMutability": "nonpayable",
      "type": "function"
    },
    {
      "inputs": [
        {
          "internalType": "address",
          "name": "from",
          "type": "address"
        },
        {
          "internalType": "address",
          "name": "to",
          "type": "address"
        },
        {
          "internalType": "uint256",
          "name": "tokenId",
          "type": "uint256"
        }
      ],
      "name": "safeTransferFrom",
      "outputs": [],
      "stateMutability": "nonpayable",
      "type": "function"
    },
    {
      "inputs": [
        {
          "internalType": "address",
          "name": "from",
          "type": "address"
        },
        {
          "internalType": "address",
          "name": "to",
          "type": "address"
        },
        {
          "internalType": "uint256",
          "name": "tokenId",
          "type": "uint256"
        },
        {
          "internalType": "bytes",
          "name": "data",
          "type": "bytes"
        }
      ],
      "name": "safeTransferFrom",
      "outputs": [],
      "stateMutability": "nonpayable",
      "type": "function"
    },
    {
      "inputs": [
        {
          "internalType": "address",
          "name": "operator",
          "type": "address"
        },
        {
          "internalType": "bool",
          "name": "approved",
          "type": "bool"
        }
      ],
      "name": "setApprovalForAll",
      "outputs": [],
      "stateMutability": "nonpayable",
      "type": "function"
    },
    {
      "inputs": [
        {
          "internalType": "uint256",
          "name": "newMaxSupply",
          "type": "uint256"
        }
      ],
      "name": "setMaxSupply",
      "outputs": [],
      "stateMutability": "nonpayable",
      "type": "function"
    },
    {
      "inputs": [
        {
          "internalType": "uint256",
          "name": "newPrice",
          "type": "uint256"
        }
      ],
      "name": "setMintPrice",
      "outputs": [],
      "stateMutability": "nonpayable",
      "type": "function"
    },
    {
      "inputs": [
        {
          "internalType": "bool",
          "name": "enabled",
          "type": "bool"
        }
      ],
      "name": "setMintingEnabled",
      "outputs": [],
      "stateMutability": "nonpayable",
      "type": "function"
    },
    {
      "inputs": [
        {
          "internalType": "bytes4",
          "name": "interfaceId",
          "type": "bytes4"
        }
      ],
      "name": "supportsInterface",
      "outputs": [
        {
          "internalType": "bool",
          "name": "",
          "type": "bool"
        }
      ],
      "stateMutability": "view",
      "type": "function"
    },
    {
      "inputs": [],
      "name": "symbol",
      "outputs": [
        {
          "internalType": "string",
          "name": "",
          "type": "string"
        }
      ],
      "stateMutability": "view",
      "type": "function"
    },
    {
      "inputs": [
        {
          "internalType": "uint256",
          "name": "index",
          "type": "uint256"
        }
      ],
      "name": "tokenByIndex",
      "outputs": [
        {
          "internalType": "uint256",
          "name": "",
          "type": "uint256"
        }
      ],
      "stateMutability": "view",
      "type": "function"
    },
    {
      "inputs": [
        {
          "internalType": "uint256",
          "name": "",
          "type": "uint256"
        }
      ],
      "name": "tokenMetadata",
      "outputs": [
        {
          "internalType": "string",
          "name": "assetId",
          "type": "string"
        },
        {
          "internalType": "string",
          "name": "name",
          "type": "string"
        },
        {
          "internalType": "string",
          "name": "description",
          "type": "string"
        },
        {
          "internalType": "string",
          "name": "imageUrl",
          "type": "string"
        },
        {
          "internalType": "uint256",
          "name": "timestamp",
          "type": "uint256"
        }
      ],
      "stateMutability": "view",
      "type": "function"
    },
    {
      "inputs": [
        {
          "internalType": "address",
          "name": "owner",
          "type": "address"
        },
        {
          "internalType": "uint256",
          "name": "index",
          "type": "uint256"
        }
      ],
      "name": "tokenOfOwnerByIndex",
      "outputs": [
        {
          "internalType": "uint256",
          "name": "",
          "type": "uint256"
        }
      ],
      "stateMutability": "view",
      "type": "function"
    },
    {
      "inputs": [
        {
          "internalType": "uint256",
          "name": "tokenId",
          "type": "uint256"
        }
      ],
      "name": "tokenURI",
      "outputs": [
        {
          "internalType": "string",
          "name": "",
          "type": "string"
        }
      ],
      "stateMutability": "view",
      "type": "function"
    },
    {
      "inputs": [],
      "name": "totalSupply",
      "outputs": [
        {
          "internalType": "uint256",
          "name": "",
          "type": "uint256"
        }
      ],
      "stateMutability": "view",
      "type": "function"
    },
    {
      "inputs": [
        {
          "internalType": "address",
          "name": "from",
          "type": "address"
        },
        {
          "internalType": "address",
          "name": "to",
          "type": "address"
        },
        {
          "internalType": "uint256",
          "name": "tokenId",
          "type": "uint256"
        }
      ],
      "name": "transferFrom",
      "outputs": [],
      "stateMutability": "nonpayable",
      "type": "function"
    },
    {
      "inputs": [
        {
          "internalType": "address",
          "name": "newOwner",
          "type": "address"
        }
      ],
      "name": "transferOwnership",
      "outputs": [],
      "stateMutability": "nonpayable",
      "type": "function"
    },
    {
      "inputs": [],
      "name": "withdraw",
      "outputs": [],
      "stateMutability": "nonpayable",
      "type": "function"
    }
  ],
  "bytecode": "0x60806040526001600d81905566038d7ea4c680006011556127106012556013805460ff191690911790553480156200003657600080fd5b5060405162003877380380620038778339810160408190526200005991620001dd565b80838360006200006a8382620002f9565b506001620000798282620002f9565b5050506001600160a01b038116620000ab57604051631e4fbdf760e01b81526000600482015260240160405180910390fd5b620000b681620000c6565b50506001600c5550620003c59050565b600b80546001600160a01b038381166001600160a01b0319831681179093556040519116919082907f8be0079c531659141344cd1fd0a4f28419497f9722a3daafe3b4186f6b6457e090600090a35050565b634e487b7160e01b600052604160045260246000fd5b600082601f8301126200014057600080fd5b81516001600160401b03808211156200015d576200015d62000118565b604051601f8301601f19908116603f0116810190828211818310171562000188576200018862000118565b81604052838152602092508683858801011115620001a557600080fd5b600091505b83821015620001c95785820183015181830184015290820190620001aa565b600093810190920192909252949350505050565b600080600060608486031215620001f357600080fd5b83516001600160401b03808211156200020b57600080fd5b62000219878388016200012e565b945060208601519150808211156200023057600080fd5b506200023f868287016200012e565b604086015190935090506001600160a01b03811681146200025f57600080fd5b809150509250925092565b600181811c908216806200027f57607f821691505b602082108103620002a057634e487b7160e01b600052602260045260246000fd5b50919050565b601f821115620002f457600081815260208120601f850160051c81016020861015620002cf5750805b601f850160051c820191505b81811015620002f057828155600101620002db565b5050505b505050565b81516001600160401b0381111562000315576200031562000118565b6200032d816200032684546200026a565b84620002a6565b602080601f8311600181146200036557600084156200034c5750858301515b600019600386901b1c1916600185901b178555620002f0565b600085815260208120601f198616915b82811015620003965788860151825594840194600190910190840162000375565b5085821015620003b55787850151600019600388901b60f8161c191681555b5050505050600190811b01905550565b6134a280620003d56000396000f3fe60806040526004361061020f5760003560e01c80636f8b44b011610118578063b88d4fde116100a0578063d5abeb011161006f578063d5abeb011461064f578063dce8ee4e14610665578063e985e9c514610678578063f2fde38b14610698578063f4a0a528146106b857600080fd5b8063b88d4fde146105aa578063c87b56dd146105ca578063cf2acf84146105ea578063d04ec72a1461061757600080fd5b80638da5cb5b116100e75780638da5cb5b1461051d57806395d89b411461053b5780639fd6db1214610550578063a22cb4651461056a578063b5c9e3d61461058a57600080fd5b80636f8b44b0146104a85780636ff1c9bc146104c857806370a08231146104e8578063715018a61461050857600080fd5b806340398d671161019b5780634f6ccce71161016a5780634f6ccce7146104015780635db092e4146104215780636352211e146104415780636817c76c146104615780636914db601461047757600080fd5b806340398d671461037457806342842e0e146103a157806346ae7e4a146103c15780634ea3871a146103e157600080fd5b806311d2c3d3116101e257806311d2c3d3146102c557806318160ddd1461030057806323b872dd1461031f5780632f745c591461033f5780633ccfd60b1461035f57600080fd5b806301ffc9a71461021457806306fdde0314610249578063081812fc1461026b578063095ea7b3146102a3575b600080fd5b34801561022057600080fd5b5061023461022f3660046128e0565b6106d8565b60405190151581526020015b60405180910390f35b34801561025557600080fd5b5061025e6106e9565b604051610240919061294d565b34801561027757600080fd5b5061028b610286366004612960565b61077b565b6040516001600160a01b039091168152602001610240565b3480156102af57600080fd5b506102c36102be36600461298e565b6107a4565b005b3480156102d157600080fd5b506102346102e0366004612a9f565b805160208183018101805160108252928201919093012091525460ff1681565b34801561030c57600080fd5b506009545b604051908152602001610240565b34801561032b57600080fd5b506102c361033a366004612ad3565b6107b3565b34801561034b57600080fd5b5061031161035a36600461298e565b610843565b34801561036b57600080fd5b506102c36108a8565b34801561038057600080fd5b5061039461038f366004612b14565b61092f565b6040516102409190612b31565b3480156103ad57600080fd5b506102c36103bc366004612ad3565b6109d0565b3480156103cd57600080fd5b506102346103dc366004612a9f565b6109f0565b3480156103ed57600080fd5b506102c36103fc366004612b8a565b610a1b565b34801561040d57600080fd5b5061031161041c366004612960565b610a6a565b34801561042d57600080fd5b506102c361043c366004612de2565b610ac3565b34801561044d57600080fd5b5061028b61045c366004612960565b610e80565b34801561046d57600080fd5b5061031160115481565b34801561048357600080fd5b50610497610492366004612960565b610e8b565b604051610240959493929190612eec565b3480156104b457600080fd5b506102c36104c3366004612960565b6110d9565b3480156104d457600080fd5b506102c36104e3366004612b14565b611138565b3480156104f457600080fd5b50610311610503366004612b14565b6111cb565b34801561051457600080fd5b506102c3611213565b34801561052957600080fd5b50600b546001600160a01b031661028b565b34801561054757600080fd5b5061025e611227565b34801561055c57600080fd5b506013546102349060ff1681565b34801561057657600080fd5b506102c3610585366004612f4c565b611236565b34801561059657600080fd5b506103116105a5366004612a9f565b611241565b3480156105b657600080fd5b506102c36105c5366004612f81565b611269565b3480156105d657600080fd5b5061025e6105e5366004612960565b611281565b3480156105f657600080fd5b5061060a610605366004612960565b61128c565b6040516102409190613049565b34801561062357600080fd5b50610311610632366004612a9f565b8051602081830181018051600e8252928201919093012091525481565b34801561065b57600080fd5b5061031160125481565b6102c3610673366004613110565b61174a565b34801561068457600080fd5b5061023461069336600461319e565b611b11565b3480156106a457600080fd5b506102c36106b3366004612b14565b611b3f565b3480156106c457600080fd5b506102c36106d3366004612960565b611b7d565b60006106e382611bcb565b92915050565b6060600080546106f8906131d7565b80601f0160208091040260200160405190810160405280929190818152602001828054610724906131d7565b80156107715780601f1061074657610100808354040283529160200191610771565b820191906000526020600020905b81548152906001019060200180831161075457829003601f168201915b5050505050905090565b600061078682611bf0565b506000828152600460205260409020546001600160a01b03166106e3565b6107af828233611c29565b5050565b6001600160a01b0382166107e257604051633250574960e11b8152600060048201526024015b60405180910390fd5b60006107ef838333611c36565b9050836001600160a01b0316816001600160a01b03161461083d576040516364283d7b60e01b81526001600160a01b03808616600483015260248201849052821660448201526064016107d9565b50505050565b600061084e836111cb565b821061087f5760405163295f44f760e21b81526001600160a01b0384166004820152602481018390526044016107d9565b506001600160a01b03919091166000908152600760209081526040808320938352929052205490565b6108b0611c4b565b47806108f55760405162461bcd60e51b81526020600482015260146024820152734e6f2066756e647320746f20776974686472617760601b60448201526064016107d9565b600b546040516001600160a01b039091169082156108fc029083906000818181858888f193505050501580156107af573d6000803e3d6000fd5b6060600061093c836111cb565b90506000816001600160401b03811115610958576109586129ba565b604051908082528060200260200182016040528015610981578160200160208202803683370190505b50905060005b828110156109c8576109998582610843565b8282815181106109ab576109ab613211565b6020908102919091010152806109c08161323d565b915050610987565b509392505050565b6109eb83838360405180602001604052806000815250611269565b505050565b6000601082604051610a029190613256565b9081526040519081900360200190205460ff1692915050565b610a23611c4b565b6013805460ff19168215159081179091556040519081527f6bdfe227d5db299c59aa56d5f846f40dbd73b271aaa78e18ed74fc3e00b8aa6b9060200160405180910390a150565b6000610a7560095490565b8210610a9e5760405163295f44f760e21b815260006004820152602481018390526044016107d9565b60098281548110610ab157610ab1613211565b90600052602060002001549050919050565b610acb611c4b565b8251845114610aec5760405162461bcd60e51b81526004016107d990613272565b8151835114610b0d5760405162461bcd60e51b81526004016107d990613272565b8051825114610b2e5760405162461bcd60e51b81526004016107d990613272565b6012548451600954610b4091906132a2565b1115610b8e5760405162461bcd60e51b815260206004820152601760248201527f576f756c6420657863656564206d617820737570706c7900000000000000000060448201526064016107d9565b60005b8451811015610e79576010848281518110610bae57610bae613211565b6020026020010151604051610bc39190613256565b9081526040519081900360200190205460ff1615610c1a5760405162461bcd60e51b8152602060048201526014602482015273105cdcd95d08185b1c9958591e481b5a5b9d195960621b60448201526064016107d9565b600d805460009182610c2b8361323d565b91905055905060016010868481518110610c4757610c47613211565b6020026020010151604051610c5c9190613256565b908152602001604051809103902060006101000a81548160ff02191690831515021790555080600e868481518110610c9657610c96613211565b6020026020010151604051610cab9190613256565b908152602001604051809103902081905550828281518110610ccf57610ccf613211565b6020908102919091018101516000838152600f909252604090912081518190610cf890826132fb565b5060208201516001820190610d0d90826132fb565b5060408201516002820190610d2290826132fb565b5060608201516003820190610d3790826132fb565b5060808201518051610d5391600484019160209091019061280d565b5060a08201518051610d6f91600584019160209091019061280d565b5060c08201518160060155905050610da0868381518110610d9257610d92613211565b602002602001015182611c78565b610dc381858481518110610db657610db6613211565b6020026020010151611c92565b858281518110610dd557610dd5613211565b60200260200101516001600160a01b031681868481518110610df957610df9613211565b6020026020010151604051610e0e9190613256565b60405180910390207f3dcc890639884c63566299e2a9e52ff4fdc00474318da30822597ba37538f7da878681518110610e4957610e49613211565b6020026020010151604051610e5e919061294d565b60405180910390a45080610e718161323d565b915050610b91565b5050505050565b60006106e382611bf0565b600f60205260009081526040902080548190610ea6906131d7565b80601f0160208091040260200160405190810160405280929190818152602001828054610ed2906131d7565b8015610f1f5780601f10610ef457610100808354040283529160200191610f1f565b820191906000526020600020905b815481529060010190602001808311610f0257829003601f168201915b505050505090806001018054610f34906131d7565b80601f0160208091040260200160405190810160405280929190818152602001828054610f60906131d7565b8015610fad5780601f10610f8257610100808354040283529160200191610fad565b820191906000526020600020905b815481529060010190602001808311610f9057829003601f168201915b505050505090806002018054610fc2906131d7565b80601f0160208091040260200160405190810160405280929190818152602001828054610fee906131d7565b801561103b5780601f106110105761010080835404028352916020019161103b565b820191906000526020600020905b81548152906001019060200180831161101e57829003601f168201915b505050505090806003018054611050906131d7565b80601f016020809104026020016040519081016040528092919081815260200182805461107c906131d7565b80156110c95780601f1061109e576101008083540402835291602001916110c9565b820191906000526020600020905b8154815290600101906020018083116110ac57829003601f168201915b5050505050908060060154905085565b6110e1611c4b565b6009548110156111335760405162461bcd60e51b815260206004820152601f60248201527f43616e6e6f74207365742062656c6f772063757272656e7420737570706c790060448201526064016107d9565b601255565b611140611c4b565b6001600160a01b0381166111965760405162461bcd60e51b815260206004820152601f60248201527f43616e6e6f7420776974686472617720746f207a65726f20616464726573730060448201526064016107d9565b6040516001600160a01b038216904780156108fc02916000818181858888f193505050501580156107af573d6000803e3d6000fd5b60006001600160a01b0382166111f7576040516322718ad960e21b8152600060048201526024016107d9565b506001600160a01b031660009081526003602052604090205490565b61121b611c4b565b6112256000611cdb565b565b6060600180546106f8906131d7565b6107af338383611d2d565b6000600e826040516112539190613256565b9081526020016040518091039020549050919050565b6112748484846107b3565b61083d3385858585611dcc565b60606106e382611ef6565b6112cc6040518060e00160405280606081526020016060815260200160608152602001606081526020016060815260200160608152602001600081525090565b6000828152600260205260409020546001600160a01b03166113275760405162461bcd60e51b8152602060048201526014602482015273151bdad95b88191bd95cc81b9bdd08195e1a5cdd60621b60448201526064016107d9565b6000828152600f602052604090819020815160e0810190925280548290829061134f906131d7565b80601f016020809104026020016040519081016040528092919081815260200182805461137b906131d7565b80156113c85780601f1061139d576101008083540402835291602001916113c8565b820191906000526020600020905b8154815290600101906020018083116113ab57829003601f168201915b505050505081526020016001820180546113e1906131d7565b80601f016020809104026020016040519081016040528092919081815260200182805461140d906131d7565b801561145a5780601f1061142f5761010080835404028352916020019161145a565b820191906000526020600020905b81548152906001019060200180831161143d57829003601f168201915b50505050508152602001600282018054611473906131d7565b80601f016020809104026020016040519081016040528092919081815260200182805461149f906131d7565b80156114ec5780601f106114c1576101008083540402835291602001916114ec565b820191906000526020600020905b8154815290600101906020018083116114cf57829003601f168201915b50505050508152602001600382018054611505906131d7565b80601f0160208091040260200160405190810160405280929190818152602001828054611531906131d7565b801561157e5780601f106115535761010080835404028352916020019161157e565b820191906000526020600020905b81548152906001019060200180831161156157829003601f168201915b5050505050815260200160048201805480602002602001604051908101604052809291908181526020016000905b828210156116585783829060005260206000200180546115cb906131d7565b80601f01602080910402602001604051908101604052809291908181526020018280546115f7906131d7565b80156116445780601f1061161957610100808354040283529160200191611644565b820191906000526020600020905b81548152906001019060200180831161162757829003601f168201915b5050505050815260200190600101906115ac565b50505050815260200160058201805480602002602001604051908101604052809291908181526020016000905b828210156117315783829060005260206000200180546116a4906131d7565b80601f01602080910402602001604051908101604052809291908181526020018280546116d0906131d7565b801561171d5780601f106116f25761010080835404028352916020019161171d565b820191906000526020600020905b81548152906001019060200180831161170057829003601f168201915b505050505081526020019060010190611685565b5050505081526020016006820154815250509050919050565b611752611fff565b60135460ff166117a45760405162461bcd60e51b815260206004820152601d60248201527f4d696e74696e672069732063757272656e746c792064697361626c656400000060448201526064016107d9565b6011543410156117ed5760405162461bcd60e51b8152602060048201526014602482015273125b9cdd59999a58da595b9d081c185e5b595b9d60621b60448201526064016107d9565b600083511161183e5760405162461bcd60e51b815260206004820152601860248201527f41737365742049442063616e6e6f7420626520656d707479000000000000000060448201526064016107d9565b60108360405161184e9190613256565b9081526040519081900360200190205460ff16156118a55760405162461bcd60e51b8152602060048201526014602482015273105cdcd95d08185b1c9958591e481b5a5b9d195960621b60448201526064016107d9565b601254600954106118ed5760405162461bcd60e51b815260206004820152601260248201527113585e081cdd5c1c1b1e481c995858da195960721b60448201526064016107d9565b6001600160a01b0384166119435760405162461bcd60e51b815260206004820152601b60248201527f43616e6e6f74206d696e7420746f207a65726f2061646472657373000000000060448201526064016107d9565b600d8054600091826119548361323d565b919050559050600160108560405161196c9190613256565b908152604051908190036020018120805492151560ff19909316929092179091558190600e9061199d908790613256565b9081526040805160209281900383019020929092556000838152600f90915220825183919081906119ce90826132fb565b50602082015160018201906119e390826132fb565b50604082015160028201906119f890826132fb565b5060608201516003820190611a0d90826132fb565b5060808201518051611a2991600484019160209091019061280d565b5060a08201518051611a4591600584019160209091019061280d565b5060c08201518160060155905050611a5d8582611c78565b611a678184611c92565b846001600160a01b03168185604051611a809190613256565b60405180910390207f3dcc890639884c63566299e2a9e52ff4fdc00474318da30822597ba37538f7da86604051611ab7919061294d565b60405180910390a4601154341115611b065760115433906108fc90611adc90346133ba565b6040518115909202916000818181858888f19350505050158015611b04573d6000803e3d6000fd5b505b5061083d6001600c55565b6001600160a01b03918216600090815260056020908152604080832093909416825291909152205460ff1690565b611b47611c4b565b6001600160a01b038116611b7157604051631e4fbdf760e01b8152600060048201526024016107d9565b611b7a81611cdb565b50565b611b85611c4b565b601180549082905560408051828152602081018490527f2e1c9e000c6e8dda4d03536adb13b7cb6034ccff90d17f01de381e4d5097b52591015b60405180910390a15050565b60006001600160e01b0319821663780e9d6360e01b14806106e357506106e382612029565b6000818152600260205260408120546001600160a01b0316806106e357604051637e27328960e01b8152600481018490526024016107d9565b6109eb838383600161204e565b6000611c43848484612154565b949350505050565b600b546001600160a01b031633146112255760405163118cdaa760e01b81523360048201526024016107d9565b6107af828260405180602001604052806000815250612221565b6000828152600660205260409020611caa82826132fb565b506040518281527ff8e1a15aba9398e019f0b49df1a4fde98ee17ae345cb5f6b5e2c27f5033e8ce790602001611bbf565b600b80546001600160a01b038381166001600160a01b0319831681179093556040519116919082907f8be0079c531659141344cd1fd0a4f28419497f9722a3daafe3b4186f6b6457e090600090a35050565b6001600160a01b038216611d5f57604051630b61174360e31b81526001600160a01b03831660048201526024016107d9565b6001600160a01b03838116600081815260056020908152604080832094871680845294825291829020805460ff191686151590811790915591519182527f17307eab39ab6107e8899845ad3d59bd9653f200f220920489ca2b5937696c31910160405180910390a3505050565b6001600160a01b0383163b15610e7957604051630a85bd0160e11b81526001600160a01b0384169063150b7a0290611e0e9088908890879087906004016133cd565b6020604051808303816000875af1925050508015611e49575060408051601f3d908101601f19168201909252611e469181019061340a565b60015b611eb2573d808015611e77576040519150601f19603f3d011682016040523d82523d6000602084013e611e7c565b606091505b508051600003611eaa57604051633250574960e11b81526001600160a01b03851660048201526024016107d9565b805160208201fd5b6001600160e01b03198116630a85bd0160e11b14611eee57604051633250574960e11b81526001600160a01b03851660048201526024016107d9565b505050505050565b6060611f0182611bf0565b5060008281526006602052604081208054611f1b906131d7565b80601f0160208091040260200160405190810160405280929190818152602001828054611f47906131d7565b8015611f945780601f10611f6957610100808354040283529160200191611f94565b820191906000526020600020905b815481529060010190602001808311611f7757829003601f168201915b505050505090506000611fb260408051602081019091526000815290565b90508051600003611fc4575092915050565b815115611ff6578082604051602001611fde929190613427565b60405160208183030381529060405292505050919050565b611c4384612239565b6002600c540361202257604051633ee5aeb560e01b815260040160405180910390fd5b6002600c55565b60006001600160e01b03198216632483248360e11b14806106e357506106e3826122ae565b808061206257506001600160a01b03821615155b1561212457600061207284611bf0565b90506001600160a01b0383161580159061209e5750826001600160a01b0316816001600160a01b031614155b80156120b157506120af8184611b11565b155b156120da5760405163a9fbf51f60e01b81526001600160a01b03841660048201526024016107d9565b81156121225783856001600160a01b0316826001600160a01b03167f8c5be1e5ebec7d5bd14f71427d1e84f3dd0314c0f7b2291e5b200ac8c7c3b92560405160405180910390a45b505b5050600090815260046020526040902080546001600160a01b0319166001600160a01b0392909216919091179055565b6000806121628585856122fe565b90506001600160a01b0381166121bf576121ba84600980546000838152600a60205260408120829055600182018355919091527f6e1540171b6c0c960b71a7020d9f60077f6af931a8bbf590da0223dacf75c7af0155565b6121e2565b846001600160a01b0316816001600160a01b0316146121e2576121e281856123f7565b6001600160a01b0385166121fe576121f984612478565b611c43565b846001600160a01b0316816001600160a01b031614611c4357611c438585612527565b61222b8383612577565b6109eb336000858585611dcc565b606061224482611bf0565b50600061225c60408051602081019091526000815290565b9050600081511161227c57604051806020016040528060008152506122a7565b80612286846125dc565b604051602001612297929190613427565b6040516020818303038152906040525b9392505050565b60006001600160e01b031982166380ac58cd60e01b14806122df57506001600160e01b03198216635b5e139f60e01b145b806106e357506301ffc9a760e01b6001600160e01b03198316146106e3565b6000828152600260205260408120546001600160a01b039081169083161561232b5761232b81848661266e565b6001600160a01b038116156123695761234860008560008061204e565b6001600160a01b038116600090815260036020526040902080546000190190555b6001600160a01b03851615612398576001600160a01b0385166000908152600360205260409020805460010190555b60008481526002602052604080822080546001600160a01b0319166001600160a01b0389811691821790925591518793918516917fddf252ad1be2c89b69c2b068fc378daa952ba7f163c4a11628f55a4df523b3ef91a4949350505050565b6000612402836111cb565b6000838152600860209081526040808320546001600160a01b038816845260079092529091209192509081831461245957600083815260208281526040808320548584528184208190558352600890915290208290555b6000938452600860209081526040808620869055938552525081205550565b60095460009061248a906001906133ba565b6000838152600a6020526040812054600980549394509092849081106124b2576124b2613211565b9060005260206000200154905080600983815481106124d3576124d3613211565b6000918252602080832090910192909255828152600a9091526040808220849055858252812055600980548061250b5761250b613456565b6001900381819060005260206000200160009055905550505050565b60006001612534846111cb565b61253e91906133ba565b6001600160a01b039093166000908152600760209081526040808320868452825280832085905593825260089052919091209190915550565b6001600160a01b0382166125a157604051633250574960e11b8152600060048201526024016107d9565b60006125af83836000611c36565b90506001600160a01b038116156109eb576040516339e3563760e11b8152600060048201526024016107d9565b606060006125e9836126d2565b60010190506000816001600160401b03811115612608576126086129ba565b6040519080825280601f01601f191660200182016040528015612632576020820181803683370190505b5090508181016020015b600019016f181899199a1a9b1b9c1cb0b131b232b360811b600a86061a8153600a850494508461263c57509392505050565b6126798383836127aa565b6109eb576001600160a01b0383166126a757604051637e27328960e01b8152600481018290526024016107d9565b60405163177e802f60e01b81526001600160a01b0383166004820152602481018290526044016107d9565b60008072184f03e93ff9f4daa797ed6e38ed64bf6a1f0160401b83106127115772184f03e93ff9f4daa797ed6e38ed64bf6a1f0160401b830492506040015b6d04ee2d6d415b85acef8100000000831061273d576d04ee2d6d415b85acef8100000000830492506020015b662386f26fc10000831061275b57662386f26fc10000830492506010015b6305f5e1008310612773576305f5e100830492506008015b612710831061278757612710830492506004015b60648310612799576064830492506002015b600a83106106e35760010192915050565b60006001600160a01b03831615801590611c435750826001600160a01b0316846001600160a01b031614806127e457506127e48484611b11565b80611c435750506000908152600460205260409020546001600160a01b03908116911614919050565b828054828255906000526020600020908101928215612853579160200282015b82811115612853578251829061284390826132fb565b509160200191906001019061282d565b5061285f929150612863565b5090565b8082111561285f5760006128778282612880565b50600101612863565b50805461288c906131d7565b6000825580601f1061289c575050565b601f016020900490600052602060002090810190611b7a91905b8082111561285f57600081556001016128b6565b6001600160e01b031981168114611b7a57600080fd5b6000602082840312156128f257600080fd5b81356122a7816128ca565b60005b83811015612918578181015183820152602001612900565b50506000910152565b600081518084526129398160208601602086016128fd565b601f01601f19169290920160200192915050565b6020815260006122a76020830184612921565b60006020828403121561297257600080fd5b5035919050565b6001600160a01b0381168114611b7a57600080fd5b600080604083850312156129a157600080fd5b82356129ac81612979565b946020939093013593505050565b634e487b7160e01b600052604160045260246000fd5b60405160e081016001600160401b03811182821017156129f2576129f26129ba565b60405290565b604051601f8201601f191681016001600160401b0381118282101715612a2057612a206129ba565b604052919050565b60006001600160401b03831115612a4157612a416129ba565b612a54601f8401601f19166020016129f8565b9050828152838383011115612a6857600080fd5b828260208301376000602084830101529392505050565b600082601f830112612a9057600080fd5b6122a783833560208501612a28565b600060208284031215612ab157600080fd5b81356001600160401b03811115612ac757600080fd5b611c4384828501612a7f565b600080600060608486031215612ae857600080fd5b8335612af381612979565b92506020840135612b0381612979565b929592945050506040919091013590565b600060208284031215612b2657600080fd5b81356122a781612979565b6020808252825182820181905260009190848201906040850190845b81811015612b6957835183529284019291840191600101612b4d565b50909695505050505050565b80358015158114612b8557600080fd5b919050565b600060208284031215612b9c57600080fd5b6122a782612b75565b60006001600160401b03821115612bbe57612bbe6129ba565b5060051b60200190565b600082601f830112612bd957600080fd5b81356020612bee612be983612ba5565b6129f8565b82815260059290921b84018101918181019086841115612c0d57600080fd5b8286015b84811015612c4c5780356001600160401b03811115612c305760008081fd5b612c3e8986838b0101612a7f565b845250918301918301612c11565b509695505050505050565b600060e08284031215612c6957600080fd5b612c716129d0565b905081356001600160401b0380821115612c8a57600080fd5b612c9685838601612a7f565b83526020840135915080821115612cac57600080fd5b612cb885838601612a7f565b60208401526040840135915080821115612cd157600080fd5b612cdd85838601612a7f565b60408401526060840135915080821115612cf657600080fd5b612d0285838601612a7f565b60608401526080840135915080821115612d1b57600080fd5b612d2785838601612bc8565b608084015260a0840135915080821115612d4057600080fd5b50612d4d84828501612bc8565b60a08301525060c082013560c082015292915050565b600082601f830112612d7457600080fd5b81356020612d84612be983612ba5565b82815260059290921b84018101918181019086841115612da357600080fd5b8286015b84811015612c4c5780356001600160401b03811115612dc65760008081fd5b612dd48986838b0101612c57565b845250918301918301612da7565b60008060008060808587031215612df857600080fd5b84356001600160401b0380821115612e0f57600080fd5b818701915087601f830112612e2357600080fd5b81356020612e33612be983612ba5565b82815260059290921b8401810191818101908b841115612e5257600080fd5b948201945b83861015612e79578535612e6a81612979565b82529482019490820190612e57565b98505088013592505080821115612e8f57600080fd5b612e9b88838901612bc8565b94506040870135915080821115612eb157600080fd5b612ebd88838901612bc8565b93506060870135915080821115612ed357600080fd5b50612ee087828801612d63565b91505092959194509250565b60a081526000612eff60a0830188612921565b8281036020840152612f118188612921565b90508281036040840152612f258187612921565b90508281036060840152612f398186612921565b9150508260808301529695505050505050565b60008060408385031215612f5f57600080fd5b8235612f6a81612979565b9150612f7860208401612b75565b90509250929050565b60008060008060808587031215612f9757600080fd5b8435612fa281612979565b93506020850135612fb281612979565b92506040850135915060608501356001600160401b03811115612fd457600080fd5b8501601f81018713612fe557600080fd5b612ee087823560208401612a28565b600081518084526020808501808196508360051b8101915082860160005b8581101561303c57828403895261302a848351612921565b98850198935090840190600101613012565b5091979650505050505050565b602081526000825160e06020840152613066610100840182612921565b90506020840151601f19808584030160408601526130848383612921565b925060408601519150808584030160608601526130a18383612921565b925060608601519150808584030160808601526130be8383612921565b925060808601519150808584030160a08601526130db8383612ff4565b925060a08601519150808584030160c0860152506130f98282612ff4565b91505060c084015160e08401528091505092915050565b6000806000806080858703121561312657600080fd5b843561313181612979565b935060208501356001600160401b038082111561314d57600080fd5b61315988838901612a7f565b9450604087013591508082111561316f57600080fd5b61317b88838901612a7f565b9350606087013591508082111561319157600080fd5b50612ee087828801612c57565b600080604083850312156131b157600080fd5b82356131bc81612979565b915060208301356131cc81612979565b809150509250929050565b600181811c908216806131eb57607f821691505b60208210810361320b57634e487b7160e01b600052602260045260246000fd5b50919050565b634e487b7160e01b600052603260045260246000fd5b634e487b7160e01b600052601160045260246000fd5b60006001820161324f5761324f613227565b5060010190565b600082516132688184602087016128fd565b9190910192915050565b602080825260169082015275082e4e4c2f2e640d8cadccee8d040dad2e6dac2e8c6d60531b604082015260600190565b808201808211156106e3576106e3613227565b601f8211156109eb57600081815260208120601f850160051c810160208610156132dc5750805b601f850160051c820191505b81811015611eee578281556001016132e8565b81516001600160401b03811115613314576133146129ba565b6133288161332284546131d7565b846132b5565b602080601f83116001811461335d57600084156133455750858301515b600019600386901b1c1916600185901b178555611eee565b600085815260208120601f198616915b8281101561338c5788860151825594840194600190910190840161336d565b50858210156133aa5787850151600019600388901b60f8161c191681555b5050505050600190811b01905550565b818103818111156106e3576106e3613227565b6001600160a01b038581168252841660208201526040810183905260806060820181905260009061340090830184612921565b9695505050505050565b60006020828403121561341c57600080fd5b81516122a7816128ca565b600083516134398184602088016128fd565b83519083019061344d8183602088016128fd565b01949350505050565b634e487b7160e01b600052603160045260246000fdfea264697066735822122031750c1ef242fc06f1cda1cee0be4046915c655612442e7133ce4f12ff8d9fab64736f6c63430008140033",
  "linkReferences": {},
  "deployedLinkReferences": {}
}